:020000040800F2
:1000000048070020B5010008F9240008F124000881
:10001000F52400082D110008252600080000000026
:1000200000000000000000000000000001250008A2
:100030003111000800000000FD240008052500081B
:10004000CF010008CF010008CF010008CF01000850
:10005000CF010008CF010008CF010008CF01000840
:10006000CF010008CF010008CF010008CF01000830
:10007000CF010008CF010008CF010008CF01000820
:10008000CF010008CF010008CF010008CF01000810
:10009000CF010008CF010008CF010008CF01000800
:1000A000CF010008CF010008CF010008CF010008F0
:1000B000CF010008CF010008CF010008CF010008E0
:1000C000CF010008CF010008CF010008CF010008D0
:1000D000CF01000819260008CF010008CF01000851
:1000E000CF010008CF010008CF01000800F002F89E
:1000F00000F050F80AA090E8000C82448344AAF172
:100100000107DA4501D100F045F8AFF2090EBAE86F
:100110000F0013F0010F18BFFB1A43F0010318473B
:10012000BC300000DC300000103A24BF78C878C131
:10013000FAD8520724BF30C830C144BF04680C60ED
:10014000704700000023002400250026103A28BF35
:1001500078C1FBD8520728BF30C148BF0B60704739
:10016000662902F0C187732900F0A484002070473B
:100170001FB500F0D9FC04000020002102F09EFF12
:10018000401C60600020002102F082FFE0601FBD83
:1001900010B510BD00F08AFF1146FFF7E9FF02F02D
:1001A00043FA00F0B1FF03B4FFF7F2FF03BC00F025
:1001B000B5FF00000948804709480047FEE7FEE711
:1001C000FEE7FEE7FEE7FEE7FEE7FEE7FEE7FEE707
:1001D00004480549054A064B7047000009250008F8
:1001E000ED000008480100204807002048030020D7
:1001F000480300200FB41CB50C0007AA009007D0DC
:100200004142A14202D32044401E01E04FF0FF30A2
:10021000074B7B4469460190069800F01EFC0021C4
:10022000002C01D0009A11701CBC5DF814FB00007A
:100230006B08000070B50C460546012A05D02878E9
:10024000800600D5EA69002302E0012305E05B1C7B
:10025000934202D2E05C0028F9D1A869E618C01ADE
:10026000A861286A184428622846AFF3008004E099
:10027000D5E9012114F8010B9047B442F8D3284680
:10028000AFF3008070BD2DE9F0474FF0000A8946BA
:100290000446C0F820A02046E1688847002876D0B0
:1002A000252806D0D4E901219047206A401C20620D
:1002B000F1E7E168204600258847C4F81CA00646FF
:1002C0000027C4F818A02A2E09D0304602F0D8FE24
:1002D00038B304EB8708303EC8F8186019E059F8C5
:1002E000041B204604EB87029161E1688847012FD7
:1002F000064618D1E069002820DA25F020051DE027
:10030000D8F8180000EB800006EB40003038C8F841
:1003100018002046E1688847064602F0B1FE002832
:10032000EED1012F0AD02E2E08D12046E168884751
:100330007F1C0646022F45F02005C4DBA06900287B
:1003400003DA404245F00105A061E80701D025F03D
:100350001005B6B1A6F14100192802D8203645F49F
:1003600000654A463146204625604D46FFF7F8FEB7
:1003700058B1012806D0ED1D25F0070000F108094D
:1003800089E704E005F1040985E730468AE7206A39
:10039000BDE8F0870FB400B58DB010A909900091A9
:1003A0000B904FF0FF300A9000200C9006487844E4
:1003B0000690064878446A4607900F9909A800F00D
:1003C00083FB0DB05DF814FB370700004F070000FA
:1003D0002DE9FF5F4FF000089946144646469169A3
:1003E000D2E901A7DDF838B001988847054659EAF7
:1003F0000B0005D009E0A1690198761C88470546E5
:10040000216A284688470028F5D1681C03D05FEA96
:10041000CA7005D015E04FF0FF3004B0BDE8F09F82
:100420002068011D2160D0F800800AE05FEACA70F0
:1004300001D108F8015BA169761C01987F1E8847ED
:100440000546002F1ADD681C18D0B9F1000F0DD039
:10045000E81705EBD060421120F01F0059F8221078
:100460002A1A012090400142E0D107E0BBF1000FC1
:10047000DCD12846216A88470028D7D0E169019855
:100480008847BBF1000F07D1002E05DD5FEACA7077
:1004900002D1002188F80010A068B84203DDBBF14A
:1004A000000F03D017B16FF00100B6E73046B4E794
:1004B00040EA010310B59B070FD1042A0DD310C8E1
:1004C00008C9121F9C42F8D020BA19BA884201D933
:1004D000012010BD4FF0FF3010BD1AB1D30703D07B
:1004E000521C07E0002010BD10F8013B11F8014B31
:1004F0001B1B07D110F8013B11F8014B1B1B01D14D
:10050000921EF1D1184610BD10B5431C02E010F840
:10051000011B71B18107FAD14FF0013202C88C1A68
:100520008C4314EAC211F9D0C01A0A0603D0C01EC7
:1005300010BDC01A10BD0A0401D0801E10BD0902F2
:10054000FCD0401E10BD10B5203AC0F00B80B1E8C1
:100550001850A0E81850B1E81850A0E81850203AF8
:10056000BFF4F5AF5FEA027C24BFB1E81850A0E801
:10057000185044BF18C918C0BDE810405FEA827C1B
:1005800024BF51F8043B40F8043B08BF7047D20732
:1005900028BF31F8023B48BF11F8012B28BF20F8D3
:1005A000023B48BF00F8012B704700004FF0013CB0
:1005B00050F8042B51F8043B9A4221D1A2EB0C03D2
:1005C000934313EACC1317D150F8042B51F8043B92
:1005D0009A4215D1A2EB0C03934313EACC130BD12F
:1005E00050F8042B51F8043B9A4209D1A2EB0C03BA
:1005F000934313EACC13DBD04FF00000704700BFE9
:10060000D01A01BAB1FA81F101F0180122FA01F011
:10061000CB40DBB2C0B2C01AC1F120012CFA01F309
:10062000D11A914311EAC311E6D170477047704760
:1006300070472DE9FF4F0C461E464FF0FF378BB039
:10064000D2E90001DDF860800A908A46C1F30A55BC
:1006500005B93D46002108464FF00000BAF1000FF1
:1006600000F4400005DA00EB80004FF4400101EA9D
:1006700050004FEA9059B9F1010F00DDB9460A98D0
:1006800050EA4A000ED044F61050A5F2FF3545431B
:100690002F14B8F1000F1ED07542291E1EDDC9F1BE
:1006A00000021CE0B8F1010F4FF0000001D0302132
:1006B00003E0F24305E02154401CB042FBDB30462E
:1006C0000022002121540B99C1F80880C1E90020C3
:1006D0000FB0BDE8F08FBD1B6D1CDEE74A4600DAA7
:1006E000694206A800F06CFC06AB93E8070003AB78
:1006F00083E8070050460A9902F0E5F88DE8070004
:10070000A0F500501F3800900398002D0ADD42F23A
:100710001F014A460844002303A90390684602F0DB
:100720004FFB09E0A0F500504A461F38002303A9FB
:100730000390684602F059FB8DE807000004000CA6
:1007400003D04FF0FF30410800E01046B8F1000F31
:1007500003D00022009215461EE0751E05D400F05D
:10076000E7F9303262556D1EF9D5B34601220843D0
:1007700002D000227F1C04E02078302801D1002222
:100780007F1E002A099784D01DE0112D07DA00F0A2
:10079000CFF9303262556D1C50EA0102F5D10843A1
:1007A00002D00098C8B10EE00021681E05E0235C6D
:1007B000625C63542254401E491C8142F7DBAB4605
:1007C000A81B401E0990002004F80B000B98099A02
:1007D000C0F80880C0E9002B7AE711264FF0000826
:1007E00057E72DE9F04F88460446D21D22F0070155
:1007F00091B0D1E90001CDE90A0102F02DFC0246D9
:100800000B98C00F01D02D2007E02068810701D58B
:100810002B2002E0202101EAC000032A099001D028
:10082000072A05DB03464146204600F0CFF90BE1DD
:100830002078800601D5E06900E00620B8F1650F58
:10084000814606D0B8F1660F18D0B8F1670F70D1A5
:1008500031E00020B9F1110F009001DB112301E01C
:1008600009F101030AAA01A90CA8FFF7E2FEDDE9DC
:100870000C70002609F10105834647E001204B4634
:1008800000904FF000470AAA01A90CA8FFF7D1FE7B
:10089000DDE90DB00C995D46002610B909F10100A3
:1008A0000D18B9EB050003D4C0F1FF3609F10105BD
:1008B000A5EB09002BE0B9F1010F01DA4FF00109B6
:1008C0000020B9F1110F0090484601DD112300E02E
:1008D00003460AAA01A90CA8FFF7ABFEDDE90C70DC
:1008E0004D4600268346207800070AD4AB4500DA3F
:1008F0005D4601A8012D04DD411911F8011C3029C4
:1009000007D04F4502DA17F1040F04DA01208246BE
:100910000FE06D1EEEE7002F02DCED1B3E4403E00E
:10092000781CA84200DD7D1CB81B00F1010A4FF0C5
:1009300000472078000703D4AA4501DB4FF0FF3AB7
:100940000021B7F1004F0DF143088DF8431024D07A
:1009500002202B23002F01DA7F422D230A21021EC1
:10096000A0F1010000DC5FB197FBF1FC97FBF1F215
:1009700001FB1C7C17460CF1300C08F801CDEEE7AA
:10098000A8F1010003702188090501D5452100E087
:100990006521A0F1010800F8011C09980FA9A1EB3D
:1009A0000807FF1D00B10120411901EBEA70A169A0
:1009B0003844081A401EA0612078C00602D42046A0
:1009C000AFF30080099828B1D4E901219047206A4B
:1009D000401C20622078C00622D52046AFF300805C
:1009E0001EE0002E04DBB34502DD01A8805D00E0BF
:1009F0003020D4E901219047206A401C2062761CF7
:100A0000AAF101005FEA000A0AD100F08DF8C0687F
:100A10000168405CD4E901219047206A401C2062B3
:100A2000281EA5F10105DCDC07E0D4E9012118F856
:100A3000010B9047206A401C2062381EA7F1010775
:100A4000F3DC2046AFF30080032011B041E6000044
:100A500001694A1C02610878704700B58FB0CDE982
:100A600001310021059105497944CDE90310114672
:100A70006846FFF708FC0FB000BD0000E5FFFFFF70
:100A8000D1E900239A4202D2531C0B6010707047C8
:100A900010B5436913B1AFF3008001E0FFF7CAFB63
:100AA000012010BD127800F124010A7000224A7062
:100AB0000122EDE711684FF0FF32E9E702681144C7
:100AC0001378016018467047D16005497944516137
:100AD00004497944116200211161114600F0B6B851
:100AE000EDFFFFFFE5000000426842B1016811F828
:100AF000013B23B1521EC0E9001218467047012184
:100B0000C160881E704742685AB1C368016843B922
:100B100083688B4205D0491E521CC0E90012002098
:100B200070474FF0FF307047004870473800002092
:100B300030B5B0F10A0271F100034FEA900E4EEAAF
:100B4000817EB0EB0E0061EB91014FEA101E4EEA80
:100B5000017E10EB0E0041EB11114FEA102E4EEA10
:100B6000016E10EB0E0041EB11214FEA104E4EEAE0
:100B7000014E10EB0E0041EB1141401841F1000114
:100B80004FEAD00040EA41704FEAD1014FEA8104B8
:100B900044EA907410EB800544EB01046D1944EBBA
:100BA0000404521BA3414FF0000348BF0A3200D592
:100BB00030BD401C41F1000130BD10B5044600F0CD
:100BC0009BFA0068005D00F0010010BD2DE9F041C6
:100BD0001F46044603260168072A01F4006004DB6F
:100BE00008B116A505E016A503E008B115A500E0BB
:100BF00015A521F010002060A069C01EA0610FB1F2
:100C0000401EA0612046AFF300804FB1D4E901211E
:100C100038469047206A401C2062C01C206206E0D3
:100C2000206AFAE7D4E9012115F8010B9047761EF6
:100C3000F8D22046AFF30080BDE8F0814E414E006F
:100C40006E616E00494E4600696E66002DE9F34FF5
:100C50004FF0000A0C4656468DB001200C9001F171
:100C60000C000B9062690B9801219047051E2DD056
:100C7000252D2CD0216A8847C0B162690B980121CB
:100C80009047216A88470028F7D16269411E0B9876
:100C9000904700E0761CA1690D988847216A884733
:100CA0000028F7D1E1690D988847DBE7A1690D9825
:100CB0008847A842074601D1761CD3E7E1690D9821
:100CC00088477F1C02D1BAF1000F6FD06BE16269D7
:100CD0000B9800273D46394690472A2804D162697F
:100CE0000B98012190470125DFF8D08262690B98AB
:100CF00001219047A0F130010A290AD24745E5DCDD
:100D000007EB870100EB4107303FDFD445F01005CA
:100D1000ECE7E90601D46FF000476C280AD04C28B4
:100D200014D0682815D06A280DD074281CD07A28D1
:100D30001AD01DE062690B98012190476C2802D0FF
:100D400045F0040514E045F002050DE045F02005EE
:100D50000AE062690B9801219047682802D045F0AB
:100D6000080505E045F4006562690B98012190478C
:100D7000C4E9015765283DD019DC58287AD00CDC2D
:100D8000452837D004DC252826D041289ED131E0E3
:100D900046282FD0472899D12CE05B2877D06128AE
:100DA00028D063287CD0642823D15AE0F6E06F284D
:100DB00048D008DC66281DD067281BD0692821D0C0
:100DC0006E2816D127E0702845D0732868D0752882
:100DD00047D078280DD14DE0A1690D988847252886
:100DE00005463FF469AFE1690D9888476D1C3FF4F3
:100DF0006AAFD8E00D9923466A466FF00100AFF361
:100E00000080C5E045F0400023464FF000026060DE
:100E1000A80736D43EE0E8077FF447AF2068011DFD
:100E200021600068290501D506701BE7290701D557
:100E3000068017E7A90703D5F117C0E9006111E79C
:100E400006600FE745F0400023464FF0080260605F
:100E5000A80716D41EE040F60E0125EA01006060E6
:100E600016E045F0400023464FF00A026060A807F4
:100E700007D40FE045F040006060A80708D523467E
:100E800010220D996FF00100AFF3008080E007E0C1
:100E9000102223460D996FF00100AFF3008077E038
:100EA0004FF0000963284F46C8464B46CB4602D058
:100EB0005B2806D038E0E80601D40120A0600127B5
:100EC00032E06269D4F80CB00B98012190475E289B
:100ED00007D14FF0010949466269D4F80CB00B986C
:100EE0009047216939B900210A4603AB43F8212014
:100EF000491C0829FADBD8B3216949B308F1010874
:100F000062690B98012190475D28F4D1B9F1000F77
:100F100009D0002003A951F82020D24341F8202015
:100F2000401C0828F7DB03AB2069002820794FEA32
:100F300040701ED05B462246CDF80080CDE9019777
:100F40000D9900286FF0010020DAAFF300801FE058
:100F5000C11703AA00EBD1614B1121F01F0102EB75
:100F60008302411A13680120884003431360C7E7D6
:100F700019E00D99224600286FF00100009702DA6F
:100F8000AFF3008004E0FFF723FA01E0AFF3008045
:100F900000280ADA401C06D10C9820B14FF0FF302F
:100FA0000FB0BDE8F08F5046FAE7E90701D10AF12A
:100FB000010A064400200C9054E60000CCCCCC0C76
:100FC0002DE9F047814616468AB0354878440DC869
:100FD0008DE80D0032487844801C03AC0DC884E8CD
:100FE0000D0041F69B300844372190FBF1F290FB55
:100FF000F1F5A5F1800501FB12041B3C02D564420A
:10100000012000E00020DFF898A080460027FA4485
:10101000AAF1BE0A0EE0E0070AD03246684607EBA6
:10102000470101230AEB810101F0DFFE8DE8070093
:1010300064107F1C002CEED1194F7F44AE3F19E0A5
:10104000E80715D007EB04100DF1180A90E80E0020
:101050008AE80E00C068F04201D198190890324623
:10106000012306A903A801F0C0FE03AB83E8070033
:101070006D10641C002DE3D14FF001033246694628
:10108000B8F1000F03A802D001F09AFE01E001F0D0
:10109000ACFEC9E90001C9F808200AB0BDE8F08734
:1010A0009821000000487047180000207546FFF79F
:1010B000F9FFAE4605006946534620F00700854615
:1010C00018B020B5FFF784F8BDE820404FF00006C7
:1010D0004FF000074FF000084FF0000BAC46ACE8B3
:1010E000C009ACE8C009ACE8C009ACE8C00921F00F
:1010F00007018D467047000010B5FFF715FD001D74
:1011000010BD00BFB91F000010B50446AFF300804A
:101110002046BDE81040FFF746B8000001491820FE
:10112000ABBEFEE72600020070470000FEE70000AD
:1011300070470000014690F82100022816D1086887
:10114000D1E90FC3026822F00E020260026822F0A9
:1011500001020260012000FA03F2CCF8042081F8B9
:1011600021000020002281F820207047042088639D
:101170000120002281F820207047000080B590F8FF
:101180002110022924D10268116821F00E0111609A
:101190002F211368C4F202018A4240F20401C4F212
:1011A000020123F00103136016DD3023C4F20203B1
:1011B0009A421DD04423C4F202039A421CD0582301
:1011C000C4F202039A421DD14FF4803322E000BFE3
:1011D00004218163012080BD0823C4F202039A42E6
:1011E0000ED01C23C4F202039A420BD1102311E04B
:1011F0004FF480730EE000BF4FF480530AE000BF4D
:10120000012307E001F1680C4FF08073624508BFCD
:101210004FF480130B60012180F82110426B0021F4
:1012200080F820100AB190470021084680BD0000D8
:10123000B0B5044600F01EF9054640F20000C2F2C7
:1012400000000078611C18BF044400BF00F012F9D0
:10125000401BA042FAD3B0BD2DE9F04F82B00E681A
:10126000002E00F0038141F20042C4F20102042387
:1012700040F2004E904208BF03234FF6FF7CC4F2B9
:10128000010E009300240123C1F2100C4FF0000A5C
:101290004FF0000949E000BF012704F00C030F22C2
:1012A0009A402BEA020207FA03F34FEA9A051A431F
:1012B00046F82520D1F804B040F20C455FEACB2275
:1012C000DEF8082054BF22EA080242EA0802C4F20B
:1012D0000105CEF808202A685FEA8B2354BF22EA72
:1012E000080242EA08022A605FEA8B33DEF8042033
:1012F00054BF22EA080242EA08025FEACB33CEF882
:101300000420DEF800204FF0010354BF22EA080257
:1013100042EA0802CEF800200E680AF1010A36FA05
:101320000AF204F1040400F0A18003FA0AF816EAB4
:10133000080FF1D04E68664512DC122E56D8DFE851
:1013400006F0350B45495555555555555555555587
:101350005555554D510000BFD1F80C9046E000BFE7
:101360004FF6FF72C1F2210296420FDC0022C1F259
:10137000110296421AD00022C1F21202964215D0F2
:101380000022C1F22102964210D02FE00022C1F2C9
:10139000220296420AD00022C1F23102964205D0C2
:1013A0000022C1F23202964220D100BF8A684AB1BF
:1013B000012A14BFC0F81480C0F810804FF008094B
:1013C00014E000BF4FF0040910E000BFCA6802F14A
:1013D00008090BE04FF0000908E000BFCA6802F1FD
:1013E000040903E0CA6802F10C0900BF2246064660
:1013F000BAF1080F24BF203A043637680F2595400C
:1014000027EA050509FA02F22A433260CA79D206B0
:101410007FF582AF41F21803C4F202031A68AEF5F9
:101420007E7642F001021A601A6802F0010201920F
:10143000019A2AF0030256F802B040F60002C4F204
:101440000102904210D040F60042C4F201029042E4
:101450003FF422AF41F20002C4F20102009F904229
:1014600008BF022719E700BF002716E702B0BDE852
:10147000F08F000040F24410C2F200000068704794
:1014800040F2000040F24411C2F20000C2F200013A
:1014900000780A68104408607047000080B542F286
:1014A0000000C4F20200016841F010010160032055
:1014B00000F08EF80F2000F005F800F027F800206B
:1014C00080BD000070B540F20006C2F2000640F296
:1014D00008013278C2F200014FF47A730968B3FB55
:1014E000F2F20446B1FBF2F1084600F063FB0F2C68
:1014F0004FF0010508D838B94FF0FF3021460022DF
:10150000002500F039F87460284670BD82B041F2C1
:101510001800C4F202000168022241F001010160DA
:10152000016801F0010101910199416841F0805188
:101530004160406800F08050009000980420C4F2A0
:101540000100016862F31A61016002B07047000097
:10155000002848BF7047C1B200F01F00012202FA04
:1015600000F04EF20012CEF2000242EAD10121F068
:10157000030108607047000010B54EF60C5CCEF217
:10158000000CDCF80030C3F3022E8EF00704042CAC
:1015900028BF0424BEF103034FF0FF3E0EFA04F40B
:1015A00038BF0023A14399400EFA03F39A43114335
:1015B00000F00F0200F160430901043A03F56443AF
:1015C0006244002848BF02F10C03197010BD0000EE
:1015D0004EF60C51CEF200010A684FF6FF031A4096
:1015E00060F30A2242F0806040F0FD7008607047AE
:1015F0002DE9F04381B0002800F0858042F2000818
:10160000C4F202080446D8F800000D4600F00700B6
:1016100088420CD2D8F8000020F007002843C8F810
:101620000000D8F8000000F00700A8426BD1206845
:1016300041F204098107C4F2020917D5410705D513
:10164000D9F8001041F4E061C9F80010010705D590
:10165000D9F8001041F46051C9F80010D9F8001011
:10166000A26821F0F0011143C9F80010C00741D170
:10167000D8F8000000F00700A8420CD9D8F8000004
:1016800020F007002843C8F80000D8F8000000F058
:101690000700A84237D12068410707D5D9F80010C4
:1016A000E26821F4E0611143C9F80010000708D591
:1016B000D9F80000216920F4605040EAC100C9F85F
:1016C0000000D9F8002002F00C00082841F20020A8
:1016D000C0F27A0050D143F29A13C2F38341C0F6AC
:1016E0000003595CD2033BD440F60010C0F23D0029
:1016F000484341E0606802280AD001282AD159F8FD
:10170000041C890308D4012001B0BDE8F08300BFA8
:1017100059F8041C8901F6D5D9F8001021F003010D
:101720000843C9F80000FFF7A5FE064641F28837D6
:10173000D9F80000616800F00C00B0EB810F97D081
:10174000FFF798FE801BB842F2D9032001B0BDE834
:10175000F08300BF59F8041C8907D4D5DCE700BF2B
:10176000D9F8002043F29813C2F34042C0F60003B8
:101770009A5C4843B0FBF2F0D9F8001043F28012B3
:10178000C1F30311C0F60002515C40F2080220FAD6
:1017900001F140F20400C2F200000068C2F200024F
:1017A0001160FFF78FFE002001B0BDE8F08300005C
:1017B00040F2080041F20401C2F20000C4F202014A
:1017C0000068096843F29012C1F30221C0F60002DA
:1017D000515CC8407047000040F2080041F204012B
:1017E000C2F20000C4F202010068096843F29012DC
:1017F000C1F3C221C0F60002515CC840704700002E
:101800002DE9F04182B0002868D00446007841F20A
:101810000006C007C4F2020625D0706800F00C0074
:1018200004281BD0706800F00C00082802D17068F2
:10183000C00313D46068002800F06881B0F5A02FC1
:1018400000F07C81B0F5803F00F07C81306820F4AE
:1018500080303060306820F4802076E1306880038A
:1018600001D56068D0B32078800718D5706810F073
:101870000C0F07D0706800F00C0008286ED170685B
:10188000C0036BD43068800702D52069012825D1B8
:101890003068616920F0F80040EAC10030602078CB
:1018A00000071FD42078400732D4E56995B17068ED
:1018B00000F00C00082840F08F80012D0ED07068D9
:1018C000216A00F480328A4208D1616A00F4701003
:1018D000884203D1002002B0BDE8F081012002B0AF
:1018E000BDE8F081A069002862D00020C4F2422047
:1018F0000121C0F88014FFF7BDFD0546706A80071E
:1019000000F18C80FFF7B6FD401B0228F6D92AE1D2
:10191000F06910F0805808D1F06940F08050F06113
:10192000F06900F080500090009847F20007C4F280
:1019300000073868C00529D4386840F480703860E2
:10194000FFF798FD054600BF3868C0051ED4FFF7B5
:1019500091FD401B6428F7D905E100BF20690028EC
:1019600040F20000C4F2422000F0828001210160B8
:10197000FFF780FD054600BF306880073FF588AF60
:10198000FFF778FD401B0228F6D9ECE0E06800285C
:1019900000F08080052800F09780012800F09880F2
:1019A000306A20F001003062306A20F0040092E0DA
:1019B0000020C4F242200021C0F88014FFF75AFD35
:1019C000054600BF706A80077FF56CAFFFF752FDD8
:1019D000401B0228F6D9C6E00027C4F242270020A7
:1019E0003866FFF747FD022D05460BD130688001B0
:1019F00040F1BE80FFF73EFD401B02284FF0030080
:101A0000F4D968E7306880017FF564AFFFF732FDF5
:101A1000401B02284FF00300F4D95CE740F20800B5
:101A2000C2F20000006844F6D351C1F26201A0FB8B
:101A30000101480A019000BF00BF0198411E002823
:101A400001913FF42FAF00BF0198411E0028019182
:101A50003FF428AF00BF0198411E002801913FF4D8
:101A600021AF00BF0198411E00280191E4D119E780
:101A700000210160FFF7FEFC054600BF30688007CB
:101A80007FF50DAFFFF7F6FC401B02284FF0030077
:101A9000F4D920E7306A20F001003062306A20F08B
:101AA00004003062FFF7E6FC054641F2883700BFCC
:101AB000306A800720D5FFF7DDFC401BB8424FF0AD
:101AC0000300F5D907E700BF306A40F00400306238
:101AD000306A40F001003062FFF7CCFC054641F26D
:101AE000883700BF306A800706D4FFF7C3FC401B6D
:101AF000B842F7D937E000BFB8F1000F7FF4D5AE98
:101B0000F06920F08050F061CFE600BF306820F42B
:101B100080303060306820F480203060FFF7AAFC0D
:101B2000054600BF306880037FF59DAEFFF7A2FC3D
:101B3000401B64284FF00300F4D9CCE6306840F431
:101B400080203060306840F480303060FFF792FCD5
:101B5000054600BF306880033FF585AEFFF78AFC7D
:101B6000401B6428F6D9032002B0BDE8F08100BF15
:101B7000206AB0F5803F05D17168A26821F4003178
:101B8000114371607168626A21F474111143084352
:101B9000706001203866FFF76DFC044630688001F4
:101BA0003FF598AEFFF766FC001B02284FF00300DC
:101BB000F4D990E6411E0020B0EB116F1CBF01204C
:101BC00070474EF21002CEF2000251604EF62351E1
:101BD000CEF20001F0230B70072190601160704776
:101BE0007047000070470000B0B582B0044600683E
:101BF0000168C368426901F02F05202D03F020051C
:101C000006D12DB1204602B0BDE8B04000F084BC42
:101C10005FEA017C1EBF02F0010E03F4907212EB2A
:101C20000E0253D1226B012A05D111F0100218BF08
:101C300013F0100236D10A0622D513F080021FD00D
:101C400094F8411021293FD1A168B1F5805F03D1FB
:101C50002169002900F07082216A4A1C22620978F9
:101C60004160E18C01390A04E1842DD1C16821F081
:101C70008001C160C16841F04001C16002B0B0BDE7
:101C8000490621D513F040011ED0C16821F0400162
:101C9000C1602021204684F8411002B0BDE8B04068
:101CA00000F024BC0021019101680191416801917B
:101CB00001994069400613D4A08DE18DE28D002A80
:101CC00018BF884240F0BA8102B0B0BDCA0718BF41
:101CD00013F4807240F0B6804A0700F1B980BEE08C
:101CE000E06B016849688AB2002AEDD0A38D9A4260
:101CF000EAD2E1858069202800F09C80206850E8C5
:101D0000030F216820F4807041E80302DAB12068F3
:101D100050E8030F216820F4807041E8030292B17B
:101D2000206850E8030F216820F4807041E8030226
:101D30004AB1206850E8030F216820F4807041E820
:101D40000302002ADAD1206850E8050F216820F04C
:101D5000010041E80502DAB1206850E8050F21686A
:101D600020F0010041E8050292B1206850E8050F1B
:101D7000216820F0010041E805024AB1206850E8DE
:101D8000050F216820F0010041E80502002ADAD1A0
:101D9000206850E8050F216820F0400041E8050266
:101DA000DAB1206850E8050F216820F0400041E8D2
:101DB000050292B1206850E8050F216820F040002C
:101DC00041E805024AB1206850E8050F216820F07B
:101DD000400041E80502002ADAD1202084F84200C0
:101DE00000202063206850E8030F216820F01000D5
:101DF00041E80302DAB1206850E8030F216820F0BF
:101E0000100041E8030292B1206850E8030F2168F6
:101E100020F0100041E803024AB1206850E8030FA7
:101E2000216820F0100041E80302002ADAD1E06BBB
:101E3000FFF780F902206063A08DE18D401A81B226
:101E4000204674E1626C42F0010262644A0706D5E2
:101E5000BEF1000F03D0626C42F0020262648A0796
:101E600006D5BEF1000F03D0626C42F0040262643A
:101E7000BCF1000F09D545EA0E02B2FA82F252090E
:101E800003D1626C42F008026264626C002A3FF483
:101E90001BAF11F0200118BF002D03D0204600F029
:101EA0003BFB20684069616C00F0400001F00801D4
:101EB000401800F0B58000BF206850E8030F21688B
:101EC00020F4907041E80302BAB3206850E8030F91
:101ED000216820F4907041E8030272B3206850E852
:101EE000030F216820F4907041E803022AB32068B0
:101EF00050E8030F216820F4907041E80302002AA3
:101F0000DAD11AE0206850E8050F216820F00100BE
:101F100041E80502DAB1206850E8050F216820F099
:101F2000010041E8050292B1206850E8050F2168E0
:101F300020F0010041E805024AB1206850E8050F91
:101F4000216820F0010041E80502002ADAD1206B67
:101F5000012824D1206850E8030F216820F01000E8
:101F600041E80302DAB1206850E8030F216820F04D
:101F7000100041E8030292B1206850E8030F216885
:101F800020F0100041E803024AB1206850E8030F36
:101F9000216820F0100041E80302002ADAD1202055
:101FA00084F84200002020632068406940063FD545
:101FB000206850E8050F216820F0400041E8050244
:101FC000DAB1206850E8050F216820F0400041E8B0
:101FD000050292B1206850E8050F216820F040000A
:101FE00041E805024AB1206850E8050F216820F059
:101FF000400041E80502002ADAD1E06BC0B142F2AC
:102000000D51C0F600014163FFF7B8F800283FF416
:102010005BAEE06B416B02B0BDE8B040084700BF6B
:102020002046FFF7DFFD0020606402B0B0BD00BFB6
:10203000204602B0BDE8B040FFF7D4BD401A216889
:1020400051E8031F226821F4907142E80313DBB1C9
:10205000216851E8031F226821F4907142E80313BC
:1020600093B1216851E8031F226821F4907142E87E
:1020700003134BB1216851E8031F226821F49071CA
:1020800042E80313002BDAD1216851E8051F2268CA
:1020900021F0010142E80513DBB1216851E8051F79
:1020A000226821F0010142E8051393B1216851E84B
:1020B000051F226821F0010142E805134BB1216898
:1020C00051E8051F226821F0010142E80513002BA9
:1020D000DAD1202184F8421000212163216851E8DF
:1020E000031F226821F0100142E80313DBB12168CD
:1020F00051E8031F226821F0100142E8031393B155
:10210000216851E8031F226821F0100142E80313FF
:102110004BB1216851E8031F226821F0100142E809
:102120000313002BDAD1022281B22046626302B08F
:10213000BDE8B040FFF754BD216A31F8022B6FF3C0
:102140005F22426021628CE5002804BF01207047B5
:1021500010B5044690F8410028B9002084F84000EA
:10216000204600F063F8242084F841002068D4E978
:102170000212C36823F40053C360036923F440537D
:102180001A430261D4E904231143C268194341F29E
:102190000C639A431143C1604169A26921F4407103
:1021A000114343F60002C4F201029042416103D0A0
:1021B000FFF7FEFA02E000BFFFF70EFB626819218D
:1021C00048439100B0FBF1F048F21F51C5F2EB110A
:1021D000A0FB01235A094FF69C73C0F6FF7302FB64
:1021E0000300322303EB0010A0FB0101F02303EAFC
:1021F0005113206803EB0212C1F3431111448160B3
:10220000016921F490410161416921F02A01416194
:10221000C16841F40051C16000202021606484F84D
:10222000411084F84210606310BD000070B586B0A4
:1022300040F60004C4F20104006804F54051002691
:102240008842049602D006B070BD00BF41F218006B
:10225000C4F20200016802AD41F4804101600168EE
:1022600001F4804101910199016841F0040101608C
:102270000068294600F00400019001984FF40070B6
:10228000029002200390032005902046FEF7E4FF11
:102290004FF48060CDE90206204629460496FEF7F9
:1022A000DBFF252002210022FFF766F92520FFF73A
:1022B0004FF906B070BD000090F84230202B1CBFD3
:1022C0000220704700294FF0010318BF002A01D1F6
:1022D0001846704700230363816222218285C285EC
:1022E000436480F842100169006819B1C16841F483
:1022F0008071C1604169002341F001014161C16801
:1023000041F02001C160184670470000006843F6A4
:102310000001C4F20101884218BF704740F2780101
:10232000C2F2000148780A7822B1081D0131012269
:10233000FFF7C2BF4A887E2A14D84B880A2803F1C7
:1023400001024A8040F2C402C2F20002D054ECD131
:1023500048880023135401200870081D0131012210
:10236000FFF7AABF00204880081D01310122FFF7B6
:10237000A3BF00002DE9F041044690F84100202859
:102380001CBF0220BDE8F0810D4600294FF001007E
:1023900000F0AA801646002A08BFBDE8F0810020A0
:1023A00060642120984684F84100FFF763F8A68412
:1023B000E684A1680646B1F5805F02D12069002855
:1023C00062D02F460025E08C002861D018F1010072
:1023D00018D0B8F1000F37D1216808E017F8010BC9
:1023E0004860E08C0138E084E08C002851D0086817
:1023F000000673D5002FF1D135F8020B00276FF3DB
:102400005F20EDE7216802E00868000609D408684B
:10241000000606D4086800065CBF08685FEA006032
:10242000F2D51FB117F8010B05E000BF35F8020B1C
:1024300000276FF35F204860E08C0138E084E08C77
:102440000028E4D125E000BF216800BF086800062D
:1024500008D4FFF70FF8801B404541D82168C868B1
:10246000F4E700BF17B117F8010B04E035F8020BD1
:1024700000276FF35F204860E08C0138E084E08C37
:102480000028E3D105E000BF0027E08C00289DD1A3
:102490002168086840061FD4B8F1000F1ED018F15B
:1024A00001000FD10868400616D40868400613D40E
:1024B0000868400610D4086840064FF00000F1D5C7
:1024C0000FE000BFFEF7D6FF801B404508D820680C
:1024D000C16800684006F5D5002002E0FEF7CAFF9B
:1024E0000320202184F84110BDE8F08170470000EE
:1024F000FEE70000FEE70000FEE700007047000076
:1025000070470000FEF7BCBF70470000406A002122
:10251000C185C184FFF766BB81B090F842102229C3
:1025200021D183680246B3F5805F09D152F8281F94
:1025300052F8183C002B63D003685B680AE000BFC8
:1025400052F8281F13B90369002BF5D003685B68A4
:1025500003F07F030B70116801311160C18D0139E7
:102560000A04C18502D001B0704700BF0168CA6883
:1025700022F02002CA60CA6822F48072CA604A69E6
:1025800022F001024A61202180F8421000214163BB
:10259000026B012A3CD10163016851E8031F026804
:1025A00021F0100142E80313DBB1016851E8031F79
:1025B000026821F0100142E8031393B1016851E869
:1025C000031F026821F0100142E803134BB10168B8
:1025D00051E8031F026821F0100142E80313002BA9
:1025E000DAD101680A68D20606D5002200920A688C
:1025F0000092496800910099818D01B0FFF7F0BA0F
:10260000026852686FF35F2221F8022B8162A5E70E
:1026100001B0FFF77BBE000040F27C00C2F2000078
:10262000FFF7E2BAFEE70000A8B0FEF737FF00248C
:102630000120CDE91D44CDE91B441C9010201D90C4
:102640004FF4601018AE022521903046CDE91944B0
:102650001895CDE91F54FFF7D3F828B1EFF3108098
:1026600072B600BFFEE700BF0F20CDE908054FF4AA
:102670008060CDE90B0408A802210A94FEF7B8FF98
:1026800020B1EFF3108072B6FEE700BF41F21800F0
:10269000C4F20200016840F2780B41F004010160CD
:1026A0000068C2F2000B00F004001890189843F67E
:1026B0000001C4F20101584640F8041F4FF41651BE
:1026C00000230C22C0E90113C0E90333C0E905234C
:1026D000C361FFF739FD28B1EFF3108072B600BF78
:1026E000FEE700BF0BF1040A0BF101015046012285
:1026F000FFF7E2FDF01C43F2C8170590301DC0F64D
:10270000000708AC049005E02F4600BF4CF25030A3
:10271000FEF78EFD4FF0000801260DE0C820FEF701
:1027200087FDB8F1310F08F101084FF0000638BFFE
:102730000126B8F1320FE9D040F20C0320462021E7
:102740003A46C2F20003FDF755FD2046FDF7DCFED8
:1027500082B2504621464FF47A73FFF70BFEFEF724
:1027600089FE8146FEF786FEA0EB090000097C2861
:10277000D4D89BF800000028F4D03D46BBF8027086
:102780003F2040F2C4013F2F28BF074618A8C2F2DD
:1027900000013A46FDF7D7FE0020002F2F46ABF888
:1027A00002008BF80000B9D043F2D61118A8C0F689
:1027B00000010322FDF77CFE0028AFD10020CDE907
:1027C0000600059843F2D2110DF11809C0F6000178
:1027D0004A46FDF7DFFD0128A0D140F20C01484632
:1027E000C2F20001FDF7E2FE002897D1F0078DD07C
:1027F0004FF00008002608E0C820FEF719FD08F198
:102800000108B8F1320F3FF47FAF0020C4F24E0050
:1028100043F2AA1240F20C030027CDE9010620463C
:102820004021C0F60002C2F20003C4F2390700964C
:102830000397FDF7DFFC2046FDF766FE82B25046A7
:1028400021464FF47A73FFF795FDFEF713FE074616
:10285000FEF710FEC01B00097C28CDD89BF80000B5
:102860000028F5D0BBF802703F2040F2C4013F2F92
:1028700028BF074618A8C2F200013A46FDF763FEDA
:10288000002FABF802608BF80060B5D0189844F2C6
:102890004131C7F64B418842AED1049843F2D21180
:1028A000C0F600014A46CDE90666FDF773FD012832
:1028B000A2D140F20C014846C2F20001FDF776FEBB
:1028C000002899D120E75FEA400C08BF91F0000F83
:1028D0004FEA8C234FEAC12243EA51514FEA1C5080
:1028E00018BF00F5F0404FEA300018BF41F000413A
:1028F0005FEA6C5C00F02980BCF1FF3F08BF40F04C
:1029000080407047130C06BF12044FF0100C4FF0BC
:10291000000C130E04BF12020CF1080C130F04BFBD
:1029200012010CF1040C930F04BF92000CF1020C85
:10293000D30F04BF52000CF1010C11464FF00002FE
:10294000A0F11F00A0EB0C00704711F0004F08BF72
:10295000704731F000413FF4D5AF0B0C06BF0904BE
:102960004FF0100C4FF0000C0B0E04BF09020CF1DD
:10297000080C0B0F04BF09010CF1040C8B0F04BFF2
:1029800089000CF1020CCB0F04BF49000CF1010CC3
:10299000CCF1200322FA03F341EA030102FA0CF21C
:1029A000A0EB0C0000F101007047000023F07F470E
:1029B00020F07F4C80EA030000F00040ACEB0703FE
:1029C00003F57C5303F1FF032DE9804909B44FEA75
:1029D000144324EA03484FEA154B25EA0B4E0FF245
:1029E000042606EB13273E7803FB0667C7F50007AE
:1029F00007FB06F64FEAD64606F102064FEA5437C1
:102A000007FB066CCCF1005C4FEA1C472CEA074C34
:102A10000CFB06F507FB06F404EB15464FEA961689
:102A200049085FEA320234BF00204FF000404FEA0D
:102A3000D13706FB07FC4FEA1C4C0CFB0BF7D21BF3
:102A400003FB0CF761EB07010CFB0EF7B0EB074043
:102A500072EB17420CFB08F734BFA2EB0742B2EB54
:102A6000074261EB17414FEA0C444FEA910706FB1E
:102A700007FC4FEA1C4C0CFB0BF7B0EBC74072EBAA
:102A8000573203FB0CF734BFA2EBC742B2EBC7428D
:102A900061EB57310CFB0EF7B0EBC70072EB5772CE
:102AA0000CFB08F734BFA2EBC702B2EBC70261EB25
:102AB00057714FEA816141EA92114FEA826242EA1C
:102AC00090124FEA806004EBCC04039F4FEAD137A9
:102AD00006FB07FC4FEA1C4C0CFB0BF7D21B03FB5D
:102AE0000CF761EB07010CFB0EF7B0EB074072EB44
:102AF00017420CFB08F734BFA2EB0742B2EB0742C8
:102B000061EB17414FEA8C5504EB9C244FEA910787
:102B100006FB07FC4FEA1C4C0CFB0BF7B0EBC74065
:102B200072EB573203FB0CF734BFA2EBC742B2EB98
:102B3000C74261EB57310CFB0EF7B0EBC70072EBED
:102B400057720CFB08F734BFA2EBC702B2EBC70207
:102B500061EB57714FEA816141EA92114FEA82625B
:102B600042EA90124FEA806015EB4C2544F10004D4
:102B70004FEAD13706FB07FC4FEA1C4C0CFB0BF766
:102B8000D21B03FB0CF761EB07010CFB0EF7B0EB5C
:102B9000074072EB17420CFB08F734BFA2EB074269
:102BA000B2EB074261EB17414FEA813141EA9241B2
:102BB0004FEA823242EA90424FEA80304FEA0C7686
:102BC00015EB1C1544F1000448EA03434EEA0B4898
:102BD0004FF0000EB2EB080C71EB030724BF624606
:102BE00039464EEB0E0E4FF0000B00185241494192
:102BF0004BEB0B0BB2EB080C71EB03077BF1000BFB
:102C000024BF624639464EEB0E0E4FF0000B001803
:102C1000524149414BEB0B0BB2EB080C71EB030734
:102C20007BF1000B24BF624639464EEB0E0E51EA93
:102C3000020718BF46F0010616EB0E7655F10002AA
:102C400054F1000103D5BDE88901BDE80088BDE865
:102C50008901BDE80048B619524141EB0101A3F1D9
:102C60000103704780807F7E7D7C7B7A79787776E0
:102C700076757473727171706F6E6E6D6C6C6B6A59
:102C80006A696868676666656464636362616160F7
:102C9000605F5F5E5E5D5D5C5C5B5B5A5A59595874
:102CA00058575756565555555454535352525251DE
:102CB000515050504F4F4F4E4E4D4D4D4C4C4C4B34
:102CC0004B4B4A4A4A49494948484847474747467B
:102CD00046464545454444444443434343424242B7
:102CE000424141419C46002B30D477002BD04FEA23
:102CF00037071CB503B44FF010004FF01001BAF1C4
:102D0000000F06D0BCF1000FDCBF40F0080040F01F
:102D100008014FF000000FBCBDE810400BF1010BA3
:102D2000BBF1010F08BF5FEA170722BF12F10102D2
:102D300011F101014FF0004143F1000300F00040A8
:102D400043EA00007047F9D35708D0E746EA064641
:102D50004FEA164613F1400F1FDD13F1200FDFBFBE
:102D600016430A46002120335B42BED0C3F1200740
:102D700046EA06464FEA164602FA07F746EA07060B
:102D800022FA03F2C3F1200701FA07F742EA070229
:102D900021FA03F14FF00003A7E746EA020646EAEC
:102DA00006464FEA164646EA0106BCBF46EA064614
:102DB000360C4FF000034FF000024FF0000194E793
:102DC0002DE9804C70B49A46934691E8380007C8C4
:102DD00031EA400C48BF34EA430C03D5FFF7E6FD67
:102DE000FFF780FFF0BCBDE8008C2DE9804C70B48B
:102DF0009A46934691E8380007C810F0804F08BF04
:102E000013F0804F03D100F005F8FFF76BFFF0BC23
:102E1000BDE8008C20F07F4723F07F4C80EA030060
:102E200000F0004007EB0C03A3F57C53A3F1FE0375
:102E300092F0000F00F0B38095F0000F00F0778063
:102E40002DE901494FEA114021EA00484FEA1446B2
:102E500024EA064700FB06FC08FB06F607FB08F819
:102E600018EB06484CEB164C00FB07F718EB07482D
:102E70004CEB17404FEA124B22EA0B4E4FEA154635
:102E800025EA06470BFB06FC0EFB06F607FB0EFECB
:102E90001EEB064E4CEB164C0BFB07F71EEB074EDA
:102EA0004CEB174B18EB0B0840F1000018EB0E0B26
:102EB00058EB000840F100008F1A4FF000014FF06E
:102EC00000063CBFC943661B14BFB5EB040C0021D0
:102ED0003CBFC943F61B4FEA174427EA04454FEAB3
:102EE0001C472CEA074C04FB076205FB07F70CFBA9
:102EF00005F616EB074642EB174204FB0CFC16EBFB
:102F00000C4642EB1C421BEB060658EB0202414109
:102F10004EEA8E0E46EA9E0601D5BDE80189B61935
:102F2000524141EB0101A3F10103BDE801894FEAE0
:102F3000144524EA05464FEA114721EA074C05FBF0
:102F400007F406FB07F70CFB06F111EB074144EB16
:102F5000174405FB0CFC11EB0C4144EB1C444FEAFD
:102F6000124722EA074C05FB07F206FB07F70CFBAA
:102F700006F616EB074642EB174205FB0CFC16EB78
:102F80000C4642EB1C456A1854F1000148BF7047DB
:102F9000B619524141EB0101A3F10103704795F0CD
:102FA000000F37D04FEA114221EA02464FEA144798
:102FB00024EA074C02FB07F106FB07F70CFB06F4BB
:102FC00014EB074441EB174102FB0CFC14EB0C44DF
:102FD00041EB1C414FEA154725EA074C02FB07F578
:102FE00006FB07F70CFB06F616EB074645EB174505
:102FF00002FB0CFC16EB0C4645EB1C42121951F17E
:10300000000148BF7047B619524141EB0101A3F1DD
:10301000010370474FEA144524EA05464FEA114779
:1030200021EA074C05FB07F106FB07F70CFB06F24C
:1030300012EB074241EB174105FB0CFC12EB0C4273
:1030400051EB1C414FF0000648BF7047921841EB0E
:103050000101A3F101037047490050EAC12018BFE4
:1030600004204A0D18BF40F0010040F2FF72B2EB9D
:10307000515F08BF40F00200012808BF05207047DB
:1030800030380A2801D20120704700207047000024
:1030900010B500290AD00878002807D005487844E0
:1030A000FDF784FA002801D0002010BD02487844C2
:1030B00010BD00005E0100005601000010B500299F
:1030C0000AD00878002807D005487844FDF76EFA42
:1030D000002801D0002010BD0248784410BD000037
:1030E0004E01000046010000FDF77BBB02400000DE
:1030F000000000A00000000005400000000000C823
:10310000000000000C4000000000409C0000000097
:10311000194000000020BCBE000000003440000048
:10312000BFC91B8E00000004B5400000504BCFD03B
:103130006607E2CF010000006C4100003E8251AA08
:10314000DFEEA73401000000D9420000DCB5A0E2A8
:103150003A301F97FFFFFFFFB4450000FD25A0C8D0
:10316000E9A3C14FFFFFFFFFFF3F00000000008009
:1031700000000000FF3F0000000000800000000091
:103180000000000000000000010203040607080917
:103190000000000001020304010202030405060707
:1031A00008090A0B0C0D0E0F1010444154417C25E8
:1031B000737C48756D3A20252E316620546D703A27
:1031C00020252E31660D0A0053454E447C25730D93
:1031D0000A00253773004F4B7C000000283300089D
:1031E00000000020180000002801000840330008FB
:1031F0001800002030070000440100081C000000F7
:1032000043000000F8FFFFFF0C0000000E0000006C
:103210000F0000002E00000010010000430000001D
:10322000F8FFFFFF004040404040404040404141E7
:10323000414141404040404040404040404040408B
:103240004040404040050202020202020202020225
:103250000202020202202020202020202020200222
:1032600002020202020290909090909010101010B2
:10327000101010101010101010101010101010104E
:1032800002020202020288888888888808080808E2
:1032900008080808080808080808080808080808AE
:1032A00002020202400000000000000000000000D6
:1032B000000000000000000000000000000000000E
:1032C00000000000000000000000000000000000FE
:1032D00000000000000000000000000000000000EE
:1032E00000000000000000000000000000000000DE
:1032F00000000000000000000000000000000000CE
:1033000000000000000000000000000000000000BD
:1033100000000000000000000000000000000000AD
:10332000000000000000000001000000100000008C
:1033300000127A0030303031000000000000000040
:04000005080000ED02
:00000001FF
