:020000040800F2
:1000000038080020B5010008ED5A0008095500081D
:10001000E95A0008651E0008395F0008000000006A
:10002000000000000000000000000000155E000855
:10003000691E000800000000F95A0008195E000857
:10004000CF010008CF010008CF010008CF01000850
:10005000CF010008CF010008CF010008CF01000840
:10006000CF010008CF010008CF010008CF01000830
:10007000CF010008CF010008CF010008CF01000820
:10008000CF010008CF010008CF010008CF01000810
:10009000CF010008CF010008CF010008CF01000800
:1000A000CF010008CF010008CF010008CF010008F0
:1000B000CF010008CF010008CF010008CF010008E0
:1000C000CF010008CF010008CF010008CF010008D0
:1000D000CF0100082D5F0008CF010008CF01000804
:1000E000CF010008FD5A0008CF01000800F002F817
:1000F00000F050F80AA090E8000C82448344AAF172
:100100000107DA4501D100F045F8AFF2090EBAE86F
:100110000F0013F0010F18BFFB1A43F0010318473B
:10012000C8810000E8810000103A24BF78C878C177
:10013000FAD8520724BF30C830C144BF04680C60ED
:10014000704700000023002400250026103A28BF35
:1001500078C1FBD8520728BF30C148BF0B60704739
:10016000662907F0D887732900F04A850020704778
:100170001FB501F009F804000020002107F018F86D
:10018000401C60600020002106F0FCFFE0601FBD05
:1001900010B510BD01F0D2FA1146FFF7E9FF05F0E6
:1001A000CDFE01F02FFD03B4FFF7F2FF03BC01F019
:1001B00033FD00000948804709480047FEE7FEE795
:1001C000FEE7FEE7FEE7FEE7FEE7FEE7FEE7FEE707
:1001D00004480549054A064B704700001D5E0008AB
:1001E000ED00000838020020380800203804002004
:1001F000380400200FB41CB50C0007AA009007D0EB
:100200004142A14202D32044401E01E04FF0FF30A2
:10021000074B7B4469460190069800F0C4FC00211E
:10022000002C01D0009A11701CBC5DF814FB00007A
:10023000B709000070B50C460546012A05D028789C
:10024000800600D5EA69002302E0012305E05B1C7B
:10025000934202D2E05C0028F9D1A869E618C01ADE
:10026000A861286A184428622846AFF3008004E099
:10027000D5E9012114F8010B9047B442F8D3284680
:10028000AFF3008070BD2DE9F0474FF0000A8946BA
:100290000446C0F820A02046E1688847002876D0B0
:1002A000252806D0D4E901219047206A401C20620D
:1002B000F1E7E168204600258847C4F81CA00646FF
:1002C0000027C4F818A02A2E09D0304606F0EDFE0B
:1002D00038B304EB8708303EC8F8186019E059F8C5
:1002E000041B204604EB87029161E1688847012FD7
:1002F000064618D1E069002820DA25F020051DE027
:10030000D8F8180000EB800006EB40003038C8F841
:1003100018002046E1688847064606F0C6FE002819
:10032000EED1012F0AD02E2E08D12046E168884751
:100330007F1C0646022F45F02005C4DBA06900287B
:1003400003DA404245F00105A061E80701D025F03D
:100350001005B6B1A6F14100192802D8203645F49F
:1003600000654A463146204625604D46FFF7F8FEB7
:1003700058B1012806D0ED1D25F0070000F108094D
:1003800089E704E005F1040985E730468AE7206A39
:10039000BDE8F0870FB400B58DB010A909900091A9
:1003A0000B904FF0FF300A9000200C9006487844E4
:1003B0000690064878446A4607900F9909A800F00D
:1003C000B3FE0DB05DF814FB970D0000AF0D0000FB
:1003D0002DE9FF5F1D464FF0FF3B91464FF00008AF
:1003E0005F46D5E90146A96901987F1C8847296ABB
:1003F000824688470028F6D1BAF1FF3F0CD0002E84
:1004000024F4C06419DD600614D5BAF12B0F09D0AD
:10041000BAF12D0F0ED103E0584604B0BDE8F09FAD
:1004200044F48064A96901987F1C8847761E82463F
:10043000002E02DDBAF1300F03D0B9F1000F26D043
:1004400032E0A969761E01987F1C44F40074884745
:10045000002E824605DDBAF1780F06D0BAF1580FAA
:1004600003D0B9F1000F10D01EE0B9F1000F02D097
:10047000B9F1100F18D1A969761E01987F1C24F4D8
:10048000007488478246102002E0082000E00A201D
:10049000814609E0A96908FB0908761E01987F1CBE
:1004A00044F4007488478246002E05DD49465046D4
:1004B00000F0AAFB0028EDDAE96901988847A00559
:1004C00002D46FF00100A8E7E00725D1600613D53C
:1004D000600502D5C8F1000000E0404629680A1D09
:1004E0002A600968220501D5087015E0220701D5A8
:1004F000088011E008600FE02868011D296000688D
:10050000210502D580F8008006E0210702D5A0F879
:10051000008001E0C0F8008038467EE72DE9FF5FEB
:100520004FF000089946144646469169D2E901A762
:10053000DDF838B001988847054659EA0B0005D028
:1005400009E0A1690198761C88470546216A28467A
:1005500088470028F5D1681C03D05FEACA7005D02F
:1005600015E04FF0FF3004B0BDE8F09F2068011D9A
:100570002160D0F800800AE05FEACA7001D108F873
:10058000015BA169761C01987F1E88470546002FF4
:100590001ADD681C18D0B9F1000F0DD0E81705EB73
:1005A000D060421120F01F0059F822102A1A0120B1
:1005B00090400142E0D107E0BBF1000FDCD12846BA
:1005C000216A88470028D7D0E16901988847BBF1A4
:1005D000000F07D1002E05DD5FEACA7002D10021AD
:1005E00088F80010A068B84203DDBBF1000F03D00B
:1005F00017B16FF00100B6E73046B4E740EA0103F7
:1006000010B59B070FD1042A0DD310C808C9121FBB
:100610009C42F8D020BA19BA884201D9012010BDF5
:100620004FF0FF3010BD1AB1D30703D0521C07E0C2
:10063000002010BD10F8013B11F8014B1B1B07D126
:1006400010F8013B11F8014B1B1B01D1921EF1D197
:10065000184610BD10B5431C02E010F8011B71B123
:100660008107FAD14FF0013202C88C1A8C4314EA88
:10067000C211F9D0C01A0A0603D0C01E10BDC01A9C
:1006800010BD0A0401D0801E10BD0902FCD0401E1E
:1006900010BD10B5203AC0F00B80B1E81850A0E8AA
:1006A0001850B1E81850A0E81850203ABFF4F5AF40
:1006B0005FEA027C24BFB1E81850A0E8185044BF9C
:1006C00018C918C0BDE810405FEA827C24BF51F809
:1006D000043B40F8043B08BF7047D20728BF31F8FD
:1006E000023B48BF11F8012B28BF20F8023B48BF4E
:1006F00000F8012B704700004FF0013C50F8042B2C
:1007000051F8043B9A4221D1A2EB0C03934313EA24
:10071000CC1317D150F8042B51F8043B9A4215D151
:10072000A2EB0C03934313EACC130BD150F8042B28
:1007300051F8043B9A4209D1A2EB0C03934313EA0C
:10074000CC13DBD04FF00000704700BFD01A01BAC5
:10075000B1FA81F101F0180122FA01F0CB40DBB2CD
:10076000C0B2C01AC1F120012CFA01F3D11A914391
:1007700011EAC311E6D170477047704770472DE901
:10078000FF4F0C461E464FF0FF378BB0D2E90001F9
:10079000DDF860800A908A46C1F30A5505B93D46E6
:1007A000002108464FF00000BAF1000F00F44000AD
:1007B00005DA00EB80004FF4400101EA50004FEAF7
:1007C0009059B9F1010F00DDB9460A9850EA4A0084
:1007D0000ED044F61050A5F2FF3545432F14B8F162
:1007E000000F1ED07542291E1EDDC9F100021CE05B
:1007F000B8F1010F4FF0000001D0302103E0F243C7
:1008000005E02154401CB042FBDB304600220021B1
:1008100021540B99C1F80880C1E900200FB0BDE850
:10082000F08FBD1B6D1CDEE74A4600DA694206A860
:1008300000F00EFF06AB93E8070003AB83E8070068
:1008400050460A9905F068FF8DE80700A0F50050B2
:100850001F3800900398002D0ADD42F21F014A461E
:100860000844002303A90390684606F013FA09E040
:10087000A0F500504A461F38002303A9039068469C
:1008800006F032FA8DE807000004000C03D04FF0A8
:10089000FF30410800E01046B8F1000F03D00022FD
:1008A000009215461EE0751E05D400F088FC30321B
:1008B00062556D1EF9D5B3460122084302D00022CD
:1008C0007F1C04E02078302801D100227F1E002AFE
:1008D000099784D01DE0112D07DA00F070FC30324A
:1008E00062556D1C50EA0102F5D1084302D0009810
:1008F000C8B10EE00021681E05E0235C625C635411
:100900002254401E491C8142F7DBAB46A81B401E07
:100910000990002004F80B000B98099AC0F8088091
:10092000C0E9002B7AE711264FF0000857E72DE9C0
:10093000F04F88460446D21D22F0070191B0D1E95C
:100940000001CDE90A0106F01BFB02460B98C00F1F
:1009500001D02D2007E02068810701D52B2002E07F
:10096000202101EAC000032A099001D0072A05DBF3
:1009700003464146204600F071FC0BE120788006DA
:1009800001D5E06900E00620B8F1650F814606D088
:10099000B8F1660F18D0B8F1670F70D131E00020C0
:1009A000B9F1110F009001DB112301E009F10103FE
:1009B0000AAA01A90CA8FFF7E2FEDDE90C700026E7
:1009C00009F10105834647E001204B4600904FF0B6
:1009D00000470AAA01A90CA8FFF7D1FEDDE90DB076
:1009E0000C995D46002610B909F101000D18B9EB0C
:1009F000050003D4C0F1FF3609F10105A5EB09009C
:100A00002BE0B9F1010F01DA4FF001090020B9F133
:100A1000110F0090484601DD112300E003460AAAA9
:100A200001A90CA8FFF7ABFEDDE90C704D460026CE
:100A30008346207800070AD4AB4500DA5D4601A85A
:100A4000012D04DD411911F8011C302907D04F4553
:100A500002DA17F1040F04DA012082460FE06D1E5E
:100A6000EEE7002F02DCED1B3E4403E0781CA842B9
:100A700000DD7D1CB81B00F1010A4FF00047207813
:100A8000000703D4AA4501DB4FF0FF3A0021B7F17C
:100A9000004F0DF143088DF8431024D002202B2382
:100AA000002F01DA7F422D230A21021EA0F101004E
:100AB00000DC5FB197FBF1FC97FBF1F201FB1C7CC2
:100AC00017460CF1300C08F801CDEEE7A8F1010053
:100AD00003702188090501D5452100E06521A0F1B9
:100AE000010800F8011C09980FA9A1EB0807FF1DD8
:100AF00000B10120411901EBEA70A1693844081ADC
:100B0000401EA0612078C00602D42046AFF30080CA
:100B1000099828B1D4E901219047206A401C20623D
:100B20002078C00622D52046AFF300801EE0002EBC
:100B300004DBB34502DD01A8805D00E03020D4E98C
:100B400001219047206A401C2062761CAAF1010016
:100B50005FEA000A0AD100F017FBC0680168405C38
:100B6000D4E901219047206A401C2062281EA5F18B
:100B70000105DCDC07E0D4E9012118F8010B9047FE
:100B8000206A401C2062381EA7F10107F3DC2046D2
:100B9000AFF30080032011B041E6000001694A1C58
:100BA00002610878704700B58FB0CDE901310021AE
:100BB000059105497944CDE9031011466846FFF7D0
:100BC00062FB0FB000BD0000E5FFFFFFD1E900238D
:100BD0009A4202D2531C0B601070704710B54369E3
:100BE00013B1AFF3008001E0FFF724FB012010BD3B
:100BF000127800F124010A7000224A700122EDE708
:100C000011684FF0FF32E9E73A2800D2303820F07F
:100C10002002412A01D3A2F13700884201D34FF0CC
:100C2000FF3070472DE9FF4F06468BB00878FF284C
:100C300006D0491C2D2805D000244FF0000908E0FB
:100C400000200CE00124F8E709EB8903491C00EBC4
:100C500043090878FF28F7D114B1C9F10000814693
:100C6000107800252C46AA4629462D2801D02B288D
:100C700004D1521C2D2813D0002082468B461078B8
:100C8000FF280FD04FF0000C0A21521CA5FB017861
:100C900004FB018105FB0C11C5194BEB0104EEE7C8
:100CA0000120EAE7002108464FF00000BAF1000FEA
:100CB00002D000EB80004008C0F38157012F01DD16
:100CC0004FF0FF370E9955EA040009EB01080BD0ED
:100CD0004FF0020918F5FA7F16DA4FEACA70002FB2
:100CE000706008DD012007E04FEACA70C6E900B075
:100CF0000FB0BDE8F08F0020306000F049FAC0F876
:100D000000901821084616E0B8F5FA7F18DD002F8C
:100D100002DAF748784401E0F6487844D0E9001058
:100D2000C6E9001040EACA70706000F031FAC0F8FD
:100D30000090142108460FB0BDE8F04F07F0E8B965
:100D4000002108464FF00000B8F10001099002DAD6
:100D5000C7F1000200E03A4601DAC8F1000106A836
:100D600000F076FC06AB93E8070003AB83E80700CE
:100D700044F23E005BEA04010090584604D144F27C
:100D80001E012C465D460091210C0904014306D149
:100D90000099240444EA15442D041039009104F00C
:100DA0007F41014306D10099240244EA15642D02D3
:100DB0000839009104F07041014306D100992401E3
:100DC00044EA15742D01091F009104F040410143CC
:100DD00006D10099A40044EA9574AD00891E0091E3
:100DE00004F00041084304D100986D196441401E8D
:100DF00000904FF001033A466846B8F1000FCDE984
:100E0000014503A902DD05F084FF01E005F057FF6D
:100E1000BAF1000F04460D4601D084F000440021D1
:100E200008464FF00000099940F2FF77484010F063
:100E30000C0F07D124F00040284303D0C4F30A501C
:100E4000B84212D100F0A4F9C0F80090C4F30A50DF
:100E5000B8420AD1A8487844D0E90010C6E9001089
:100E600004F000410843706042E7C6E900543FE7E0
:100E70002DE9FF4F1F464FF0000A4FF0FF3845465F
:100E800091B0D7E90146CDF83CA000F07DF9C068EB
:100E90000168405C1090B96912986D1C8847396AE6
:100EA000814688470028F6D1B9F1FF3F0AD0002ECD
:100EB00024F4D06411DDB9F12B0F08D0B9F12D0F56
:100EC0000BD102E0404615B013E744F48064B969E1
:100ED00012986D1C8847761E8146600504A901D5CD
:100EE0002D2000E02B20002E01F1010B0DF1300828
:100EF0008DF810003FDDB9F1690F08D0B9F1490F45
:100F000005D0B9F16E0F02D0B9F14E0F1CD13B469E
:100F100001A8009580E85002DDE912126FF002008E
:100F200007F05FF9C11CCED10EE0B96912986D1CB3
:100F3000884781461398761E44F4007405600F9824
:100F4000401C002E0F9016DDB9F1300FEDD0B9F135
:100F5000780F02D0B9F1580F0DD10F9801280AD19E
:100F60003B46CDE90054DDE91212001F029607F05E
:100F700036F9C11CA7D1109989453ED144F08004AF
:100F800006E01399681CAAF1010A44F40074086091
:100F9000B9696D1C1298761E884730288146F0D0BA
:100FA0002BE01099894505D1200603D4761E44F024
:100FB000800418E0484606F078F808B3761E0DF174
:100FC00023029345A9F1300044F4007406D20BF8D3
:100FD000010B200607D5AAF1010003E0200602D488
:100FE0000AF101008246A00502D51399681C086029
:100FF000B96912986D1C88478146002ED1DC53E0F8
:10100000002E51DDB9F1650F02D0B9F1450F4BD17A
:10101000A00549D5B9696D1C1298761E24F4407458
:101020008847002E81460CDD2B2804D0B9F12D0F06
:1010300007D144F48074B96912986D1C8847761EF4
:101040008146E00501D52D2100E02B2108F8011B88
:10105000CDF8008021E0761E0DF13901884544F479
:1010600000740CD2A9F1300010F0FF0088F80000E5
:1010700002D10099884509D908F1010806E0E00588
:1010800001D51E4801E042F20F708246B9691298FC
:101090006D1C8847814613980560002E04DD484684
:1010A00006F003F80028D6D1F96912988847FF2086
:1010B00053468BF8000088F8000000200A900B903F
:1010C00004AA0CA90AA8FFF7ADFDA00502D46FF091
:1010D0000100F8E614F0240F12D0E0071CD13868A4
:1010E000DDE90A12031D3B600068C0E9001213E04D
:1010F000F8750000EA750000AE740000F1D8FFFF3B
:101100000AA9684605F060FFE00705D13868009A33
:10111000011D3960006802602846D4E60268114467
:101120001378016018467047D160054979445161D0
:1011300004497944116200211161114600F0CEB8D2
:10114000EDFFFFFF13010000426842B1016811F892
:10115000013B23B1521EC0E900121846704701211D
:10116000C160881E704742685AB1C368016843B9BC
:1011700083688B4205D0491E521CC0E90012002032
:1011800070474FF0FF307047004870474000002024
:101190000048704720000020B2F120030AD5C2F1B8
:1011A000200301FA02F120FA03F341EA030100FAF5
:1011B00002F0704700FA03F14FF00000704730B5BD
:1011C000B0F10A0271F100034FEA900E4EEA817EFF
:1011D000B0EB0E0061EB91014FEA101E4EEA017E6A
:1011E00010EB0E0041EB11114FEA102E4EEA016E8A
:1011F00010EB0E0041EB11214FEA104E4EEA014E6A
:1012000010EB0E0041EB1141401841F100014FEA93
:10121000D00040EA41704FEAD1014FEA810444EA2C
:10122000907410EB800544EB01046D1944EB040449
:10123000521BA3414FF0000348BF0A3200D530BD16
:10124000401C41F1000130BD10B5044600F09CFA8D
:101250000068005D00F0010010BD00002DE9F041C4
:101260001F46044603260168072A01F4006004DBD8
:1012700008B116A505E016A503E008B115A500E024
:1012800015A521F010002060A069C01EA0610FB15B
:10129000401EA0612046AFF300804FB1D4E9012188
:1012A00038469047206A401C2062C01C206206E03D
:1012B000206AFAE7D4E9012115F8010B9047761E60
:1012C000F8D22046AFF30080BDE8F0814E414E00D9
:1012D0006E616E00494E4600696E66002DE9F34F5F
:1012E0004FF0000A0C4656468DB001200C9001F1DB
:1012F0000C000B9062690B9801219047051E2DD0C0
:10130000252D2CD0216A8847C0B162690B98012134
:101310009047216A88470028F7D16269411E0B98DF
:10132000904700E0761CA1690D988847216A88479C
:101330000028F7D1E1690D988847DBE7A1690D988E
:101340008847A842074601D1761CD3E7E1690D988A
:1013500088477F1C02D1BAF1000F6FD06BE1626940
:101360000B9800273D46394690472A2804D16269E8
:101370000B98012190470125DFF8D08262690B9814
:1013800001219047A0F130010A290AD24745E5DC46
:1013900007EB870100EB4107303FDFD445F0100534
:1013A000ECE7E90601D46FF000476C280AD04C281E
:1013B00014D0682815D06A280DD074281CD07A283B
:1013C0001AD01DE062690B98012190476C2802D069
:1013D00045F0040514E045F002050DE045F0200558
:1013E0000AE062690B9801219047682802D045F015
:1013F000080505E045F4006562690B9801219047F6
:10140000C4E9015765283DD019DC58287AD00CDC96
:10141000452837D004DC252826D041289ED131E04C
:1014200046282FD0472899D12CE05B2877D0612817
:1014300028D063287CD0642823D15AE0F6E06F28B6
:1014400048D008DC66281DD067281BD0692821D029
:101450006E2816D127E0702845D0732868D07528EB
:1014600047D078280DD14DE0A1690D9888472528EF
:1014700005463FF469AFE1690D9888476D1C3FF45C
:101480006AAFD8E00D9923466A466FF0010006F076
:10149000A4FEC5E045F0400023464FF00002606026
:1014A000A80736D43EE0E8077FF447AF2068011D67
:1014B00021600068290501D506701BE7290701D5C1
:1014C000068017E7A90703D5F117C0E9006111E706
:1014D00006600FE745F0400023464FF008026060C9
:1014E000A80716D41EE040F60E0125EA0100606050
:1014F00016E045F0400023464FF00A026060A8075E
:1015000007D40FE045F040006060A80708D52346E7
:1015100010220D996FF00100AFF3008080E007E02A
:10152000102223460D996FF00100FEF751FF77E07E
:101530004FF0000963284F46C8464B46CB4602D0C1
:101540005B2806D038E0E80601D40120A06001271E
:1015500032E06269D4F80CB00B98012190475E2804
:1015600007D14FF0010949466269D4F80CB00B98D5
:101570009047216939B900210A4603AB43F821207D
:10158000491C0829FADBD8B3216949B308F10108DD
:1015900062690B98012190475D28F4D1B9F1000FE1
:1015A00009D0002003A951F82020D24341F820207F
:1015B000401C0828F7DB03AB2069002820794FEA9C
:1015C00040701ED05B462246CDF80080CDE90197E1
:1015D0000D9900286FF0010020DAAFF300801FE0C2
:1015E000C11703AA00EBD1614B1121F01F0102EBDF
:1015F0008302411A13680120884003431360C7E740
:1016000019E00D99224600286FF00100009702DAD8
:10161000AFF3008004E0FEF781FF01E0AFF300804C
:1016200000280ADA401C06D10C9820B14FF0FF3098
:101630000FB0BDE8F08F5046FAE7E90701D10AF193
:10164000010A064400200C9054E60000CCCCCC0CDF
:101650002DE9F047814616468AB0354878440DC8D2
:101660008DE80D0032487844801C03AC0DC884E836
:101670000D0041F69B300844372190FBF1F290FBBE
:10168000F1F5A5F1800501FB12041B3C02D5644273
:10169000012000E00020DFF898A080460027FA44EF
:1016A000AAF1BE0A0EE0E0070AD03246684607EB10
:1016B000470101230AEB810105F016FB8DE80700C5
:1016C00064107F1C002CEED1194F7F44AE3F19E00F
:1016D000E80715D007EB04100DF1180A90E80E008A
:1016E0008AE80E00C068F04201D19819089032468D
:1016F000012306A903A805F0F7FA03AB83E8070066
:101700006D10641C002DE3D14FF001033246694691
:10171000B8F1000F03A802D005F0BCFA01E005F013
:10172000E3FAC9E90001C9F808200AB0BDE8F0876A
:10173000346C000000487047200000207546FFF719
:10174000F9FFAE4605006946534620F0070085467E
:1017500018B020B5FEF73CFDBDE820404FF0000674
:101760004FF000074FF000084FF0000BAC46ACE81C
:10177000C009ACE8C009ACE8C009ACE8C00921F078
:1017800007018D467047000010B5FFF7FDFC001DF6
:1017900010BD00BF1D5A000010B5FFF7F9FC00682E
:1017A00010BD10B50446FFF7F3FC046010BD000047
:1017B0002DE9FF4F1F464FF03C0987B04FF0004224
:1017C000DDE9141001F10108DDF858A002EA4050EB
:1017D0000390002005908346054604460490B969AD
:1017E000461E08988847AAF1010A0290BAF1000F34
:1017F0003BDD02982E2815D01021FFF705FA0028AE
:101800002EDB4FF0010B0599014317D0B9F1000F02
:101810000BDB4A46C117FFF7BFFC05430C43A9F198
:10182000040905E0012004900BE008B145F0010532
:1018300001200590049820B9361D02E0049800B1FB
:10184000361FB969089808F101088847BBF1000FF5
:10185000AAF1010A0290C9D00999C1F80080C5E730
:101860000298702808D0502806D0F969089888474F
:10187000BBF1000F14D04FE0002002900120BBF11B
:10188000000F049009D0B969089808F10108884749
:10189000AAF10109B9F1000F07DCF9690898884736
:1018A0006FF001000BB0BDE8F08F2B2804D02D287D
:1018B0000CD14FF0FF300490B969089808F1010885
:1018C0008847A9F10109B9F1000FE6DD411CE4D018
:1018D0000A21FFF799F90028DFDB029908F10108D6
:1018E00001EB810100EB41000290B969089888473B
:1018F0000A21FFF789F9099AA9F10109B9F1000F45
:10190000C2F8008001DD0028E7DAF9690898884705
:101910000499029800FB016655EA040004D004F023
:101920004041090002D006E0039898E0A40044EA90
:101930009574AD00B61E04F00041080002D16D1987
:101940006441761E159810F0240F03D04FF00B0958
:101950005C4803E04FF028096FF07D008246564551
:1019600007DAAAEB06018944B9F1410F01DD4FF016
:10197000410901200021A9F10102FFF70DFC0246F7
:1019800028400B462140084301D0012100E00021FE
:10199000501E029143F1FF3128402140084301D0FD
:1019A000012000E000200299834651EA0B014FD04C
:1019B000002108464FF00000039900F4400039B1BF
:1019C00000EB80004FF4400100EBD07001EA6000B2
:1019D0008015012802DD4FF0FF3000E013D0401CDD
:1019E00036D0029860B3BBF1000F0CD14A460120FB
:1019F0000021FFF7D1FB28402140084301D00120FE
:101A000000E00020E0B101204A460021FFF7C4FBBE
:101A1000034640190A4661412D1A8C4111D3B9F190
:101A2000400F09DD159810F0240F02D0AAF13406FA
:101A300003E0AAF1170600E0761C00254FF00044F1
:101A400006E05B1E42F1FF3220EA030521EA0204B0
:101A5000CAF10100B04206DA1B490398084301901D
:101A6000002000900EE0039AC4F3D321E80A0A4351
:101A7000164940EA44500A433146CDE9000268461F
:101A800005F008FB159810F0240F0BD01598C0072F
:101A900015D13868DDE90012031D3B600068C0E91C
:101AA00000120CE002A8694605F08EFA1598C007EE
:101AB00005D13868029A011D39600068026040460D
:101AC000F0E6000002FCFFFF0000F07F0000F03FA6
:101AD0002DE9FF4F92461D4685B04FF00041DDE9EC
:101AE000124BDDE914727F1E01EA4B50414940F070
:101AF000FF4940EA0108002122F020004928049112
:101B000002D04E2828D04CE03BA0012607C88DE823
:101B10000700A9690698641C88477F1E014606D401
:101B20001DF8060018B121F0200181420BD0E969AF
:101B300006988847032E34D0082E32D06FF001006B
:101B400009B0BDE8F08F761C032E01D0082EE0D13D
:101B5000601CCAF80000DCE7A9690698641C884785
:101B60007F1E2AD420F02000412826D1A96906989A
:101B7000641C88477F1E20D420F020004E281CD1F2
:101B8000A9690698641C88477F1E48F4002849F418
:101B90008009CAF8004001D4282806D0E9690698CF
:101BA00088475FEACB7012D022E0A9690698641CCE
:101BB00088477F1E01D4002803DAE9690698884720
:101BC000BCE72928F1D1641CCAF80040E9E71BF002
:101BD000240F07D028680499031D2B600068C0E912
:101BE000001805E02868021D2A600068C0F800900F
:101BF0002046A5E70000F07F494E46494E4954591A
:101C00000000000010B50446AFF300802046BDE898
:101C10001040FEF7C8BA000001491820ABBEFEE72D
:101C20002600020070470000B0B5044600688168D5
:101C3000C90709D0816821F00101816001F01EF916
:101C400021688968C90701D10020B0BD054602E0BE
:101C50008068C007F8D001F011F9411B2068032902
:101C6000F6D38168C907F3D0A06A40F01000A062E3
:101C7000E06A40F00100E0620120B0BDB0B582B082
:101C800004460020019021688A68D2074FD18868F5
:101C900040F00100886040F21C00C2F200000068C1
:101CA0004DF68361C4F21B31A0FB0101880C019049
:101CB0000198A0B1019801380190019878B101987C
:101CC00001380190019850B10198013801900198B4
:101CD00028B101980138019001980028EAD101F05B
:101CE000CDF821688968C9071CD1054603E000BF0B
:101CF0008068C0071AD101F0C1F8411B2068032990
:101D0000F6D38168C907F3D1A06A40F01000A06241
:101D1000E06A40F00100E062002084F82400012025
:101D200002B0B0BD002002B0B0BD00BF002002B0C4
:101D3000B0BD0000B0B586B00446282000F086FE95
:101D400001200DF117014FF47A75CDE900102046FE
:101D5000702171220123029501F03AFC9DF81700D1
:101D600000070CD440F6BE00049004AA204670215F
:101D70000323009501F042FB0A2000F067FE06B045
:101D8000B0BD00002DE9F04387B0064643F2AC3009
:101D90009046894606904FF47A7706AA304670211D
:101DA0000323009701F02AFB502000F04FFE01248E
:101DB0000DF117053046702171220123CDE9005441
:101DC000029701F005FC642000F040FE9DF9170029
:101DD0000028EFD44FF47A7704AA30467021072305
:101DE000009701F00DF99DF812109DF811009DF873
:101DF00013209DF81430090141EA003040EA121620
:101E000018029DF8151062F31340084405F06AFCAF
:101E10000023C3F6B063002205F0B4FC0023C4F233
:101E20006903002205F0AEFC0023CCF24903002236
:101E300005F006FA05F0D2F9C9F80000304605F0C1
:101E400051FC41F27B4247F6E123C4F2AE72C4F288
:101E5000C40305F0B1FA05F0C1F9C8F8000007B0F5
:101E6000BDE8F083FEE70000704700002DE9F04375
:101E700093B047F20006C4F2000606F5184948463A
:101E8000092101224FF0010800F0F2FF40F280002A
:101E9000C2F2000000F12805046A04A928460022C5
:101EA000002702F063FA9DF810009DF811104FF41E
:101EB000616300FB03409DF81220C1EB011100EBB0
:101EC000810044F207511044CCF22E21A0FB0112F4
:101ED000110C40F2A3225143A0EBC1104BF2C531CB
:101EE000C9F2A211A0FB011248F68901C8F68801C7
:101EF000A0FB0114D10A01FB13028DF8241091B24A
:101F000048F689025143490D8DF8251061090901F0
:101F1000A1EB5411A0EB81008DF8260009A92846F9
:101F200000220A9702F0E2FB20B1EFF3108072B6B4
:101F3000FEE700BF02F05CFE3068012140F00400C3
:101F40003060012001F0E4FD02F032FE0A20099029
:101F50001020CDE90E084FF460100225129009A858
:101F60000C97CDE90A770397CDF83480CDE9105767
:101F700001F0FCFF20B1EFF3108072B6FEE700BF66
:101F80000F20CDE9040500204FF480610690CDE9D3
:101F9000071004A8022101F0E1FE28B1EFF3108040
:101FA00072B600BFFEE700BF032000904FF4007040
:101FB00001904FF400400290684601F049FE28B1BC
:101FC000EFF3108072B600BFFEE700BF484609215C
:101FD000002200F04DFF642000F038FD13B0BDE892
:101FE000F083000070B542F20C060446C4F202060B
:101FF00000F044FF3168C90718D13068800644BF3B
:10200000202030603068C00607D43069C00704D192
:10201000306840075CBF002070BD3068C00623D424
:102020000020316849072BD434E000BF002C47D092
:102030000546601C0ED13068C007DED03068C0078E
:102040001CBF30685FEAC070D7D03068C007F2D1DB
:10205000D3E700BF00F012FF401BA04230D8306829
:10206000C007F7D1C9E700BF40F29010C2F20000EC
:10207000C16941F00201C16110203168490709D5E9
:1020800040F29011C2F20001CA6940F0040042F02F
:102090000102CA613169C90702D13060012070BDF7
:1020A00040F29011C2F20001CA6942F00402CA6112
:1020B000316921F0010131613060012070BD00BF44
:1020C000032070BDB0B586B0044600F0ABFD002023
:1020D0000390CDE901004FF600450120C0F6000550
:1020E000059002A801A9049500F0C4FC2268022012
:1020F0002946002300F040FD6268291D02200023CC
:1021000000F03AFDA26805F108010220002300F06A
:1021100033FDE26805F10C010220002300F02CFDE4
:10212000226905F110010220002300F025FD00F0D6
:1021300019FD06B0B0BD000070B582B004460020A5
:10214000019094F82400012804D10225284602B009
:1021500070BD00BF012084F824002046FFF764FD15
:102160002046FFF78BFD0546002867D1A06A41F2A3
:10217000021188430230A06240F21C00C2F200004B
:102180000668022001F0ECFCB6FBF0F04000019084
:102190000198A0B1019801380190019878B1019897
:1021A00001380190019850B10198013801900198CF
:1021B00028B101980138019001980028EAD12068DF
:1021C000816841F00801816000F058FE21688A684A
:1021D00012070DD4886840F00400886000F04EFEBD
:1021E00021688968490713D401206FF0030121E0B9
:1021F000064602E088680007ECD500F03FFE801B31
:1022000021680B28F6D388680007F3D50EE000BFDD
:10221000064602E080684007E6D500F02FFE811BED
:1022200020680B29F6D381684907F3D501251020D2
:102230006FF01201A26A11400843A062002084F8E6
:102240002400284602B070BD10B581B00022009273
:1022500090F82420012A03D10221084601B010BDC4
:102260004B680122062B80F8242017D8D0F800C034
:1022700003EB83035A1F1F23DCF834E003FA02F454
:102280000B682EEA040403FA02F22243CCF834204D
:10229000092B03EB430219D936E000BFD0F800C088
:1022A0000C2B03EB83021DD8233A1F23DCF830E00C
:1022B00003FA02F40B682EEA040403FA02F2224342
:1022C000CCF83020092B03EB43021DD8DCF810308A
:1022D000072489689440A34391401943CCF8101017
:1022E000002130E0413A1F23DCF82CE003FA02F42D
:1022F0000B682EEA040403FA02F22243CCF82C20E5
:10230000092B03EB4302E1D9DCF80CE01E3A072469
:10231000896894402EEA0404914023F0010221438D
:10232000102ACCF80C100DD142F20841C4F2010180
:10233000A1F1080294450DD0816A41F0200181622B
:10234000012100E00021002280F82420084601B08D
:1023500010BD00BF0A68120230D40A68102B42F484
:1023600000020A602CD140F21C01C2F2000109688F
:102370004DF68362C4F21B32A1FB0212910C01EBF9
:102380008101490000910099E1B100990139009162
:102390000099C9B10099013900910099B1B1009932
:1023A00001390091009999B1009901390091009982
:1023B00000294FF00001E8D1C5E700BF0021C2E7C6
:1023C0000021C0E70021BEE70021BCE70021BAE7F9
:1023D0000021B8E70068C06C70470000B0B5002865
:1023E00000F0A8800446806A20B121688868C00790
:1023F0000BD114E00020E06284F82400204600F0B5
:102400009BF821688868C00709D0886820F001001F
:10241000886000F033FD21688A68D20726D1A06A5F
:10242000C0063AD4A06A41F2021290430230A06280
:10243000E069D4E9013240EA030C531EB3FA83F396
:102440005D091346B2F5807F18BF2B02207D257BE6
:1024500001284CEA450030D135B3A56A45F0200586
:10246000A562E56A45F00105E56226E0054602E061
:102470008868C007D3D000F001FD401B2168032805
:10248000F6D38868C007F3D0A06A40F01000A062BD
:10249000E06A40F00100E062A06AA06A40F010002B
:1024A000A0620120B0BD00BFD4F818C04EF60005F0
:1024B000CFF6FF7505EB4C352B434D68B2F5807FA9
:1024C00025F4694543EA05034B608B684FF2FD75BF
:1024D000CFF6E17503EA050343EA00038B6001D000
:1024E000012A07D122690023CFF6F07303EB0252D1
:1024F00001E000BF0022CB6A23F470031A43CA62D2
:10250000896840F6FE62CFF61F721140814207D102
:102510000020E062A16A012262F30101A162B0BD64
:10252000A06A40F0100020F00200A062E06A40F0D3
:102530000100E0620120B0BD80B586B0014640F6E2
:102540000000C4F20100096800F5E05291424FF02A
:102550000001CDE9041101D006B080BD41F218019F
:10256000C4F202010A6842F400720A600A6802F4C6
:1025700000720192019A0A6842F004020A60096836
:1025800001F00401019101990221029103210391BB
:1025900002A900F05FFB06B080BD0000F0B581B07D
:1025A00000270D460446009700F068FC21688A6801
:1025B000D20543D406464868C00503D4C86A10F45F
:1025C000700F45D040F21C00C2F2000007680220E4
:1025D00001F0C6FA216844F624130A69B7FBF0F04B
:1025E000C2F292431A4206D1CA6844F62413C0F2DA
:1025F00092031A425ED00A6942F29243C1F2492321
:102600001A4207D1CA6842F29243C0F249031A4201
:1026100000F0C0800A6949F24923C0F224031A423B
:102620004FF0FC0257D1CF681F4208BF5422009BD5
:1026300002FB00F7BB4253D3C3E000BFA06A40F0E7
:102640002000A06284F82470012001B0F0BD00BF1A
:102650000868800700F1B580681C00F0A880FDB90B
:102660000868800772D50868800700F1AA800868AA
:1026700080076BD50868800700F1A3800868800791
:1026800064D50868800700F19C80086880075DD5E4
:1026900008688007E4D594E00868800700F191801D
:1026A00000F0ECFB801B2168A842F5D90868800780
:1026B000F2D44BE00A6942F29243C1F249231A4232
:1026C0004FF0290207D1CB6842F29247C0F2490786
:1026D0003B4208BF1422009B02FB00F7BB4270D2B2
:1026E000681C4FD055BB0098B8422FD300980130DA
:1026F00000900098B84264D20098B84226D300985F
:10270000013000900098B8425BD20098B8421DD3C7
:102710000098013000900098B84252D20098B84218
:1027200014D30098013000900098B842DBD348E001
:102730000098013000900098B84233D200F09EFB20
:10274000801BA842F4D90098B842F1D2A06A40F0A8
:102750000400A062002084F82400032001B0F0BD32
:102760000098013000900098B8422AD200980130B9
:1027700000900098B84224D2009801300090009850
:10278000B8421ED20098013000900098B842E7D3BA
:1027900017E000BF5422009B02FB00F7BB429FD30F
:1027A0000FE000BF21680CE00868800709D40868C2
:1027B000800706D4086880075CBF08685FEA8070FD
:1027C000F2D56FF012000860A06A40F40070A062B9
:1027D000886800F46020B0F5602F01D1207B18B12B
:1027E000002001B0F0BD00BFA06A20F48070A0629C
:1027F000A06AC004F4D4A06A40F00100A0620020E6
:1028000001B0F0BD10B5044690F82400012804BFC3
:10281000022010BD012084F824002046FFF72EFA84
:1028200020B1002184F8241010BD00BF42F2044CF6
:102830002068A16AC4F2010C40F2013291430CF508
:102840007F7201F580719042A16233D0A16A21F4B8
:102850008011A1624168490504D5A16A012363F38F
:102860000D31A162A16A0023C9044FF0000144BFE9
:10287000E16A21F00601E1626FF0020184F8243080
:102880000160816801F46021B1F5602F06D19042AA
:102890000AD1DCF8001011F4702F05D0816841F4E2
:1028A00080118160002010BD816841F4A001816029
:1028B000002010BDDCF8001011F4702FC6D0A16A02
:1028C00041F48011A162DCF800104905C5D4C9E7C4
:1028D000B0B5044690F82400012804BF0220B0BD22
:1028E0000121206884F824108168C90709D0816813
:1028F00021F00101816000F0C1FA21688968C907EF
:102900000ED1214651F8280F41F2011220EA0202AD
:10291000002042F001020A60002184F82410B0BDBA
:10292000054602E08068C007EBD000F0A7FA411B23
:1029300020680329F6D38168C907F3D0A06A21462D
:1029400040F01000A06251F82C2F0120E1E70000B8
:10295000014690F82100022816D10868D1E90FC37A
:10296000026822F00E020260026822F00102026098
:10297000012000FA03F2CCF8042081F821000020A5
:10298000002281F820207047042088630120002263
:1029900081F820207047000080B590F821100229AE
:1029A00024D10268116821F00E0111602F211368F3
:1029B000C4F202018A4240F20401C4F2020123F08F
:1029C0000103136016DD3023C4F202039A421DD0C6
:1029D0004423C4F202039A421CD05823C4F20203D7
:1029E0009A421DD14FF4803322E000BF042181635D
:1029F000012080BD0823C4F202039A420ED01C239A
:102A0000C4F202039A420BD1102311E04FF48073F9
:102A10000EE000BF4FF480530AE000BF012307E03F
:102A200001F1680C4FF08073624508BF4FF48013CA
:102A30000B60012180F82110426B002180F82010EA
:102A40000AB190470021084680BD0000B0B5044699
:102A500000F014FA054640F21400C2F200000078BB
:102A6000611C18BF044400BF00F008FA401BA042DC
:102A7000FAD3B0BD2DE9F04381B040F29016C2F216
:102A80000006327E012A03D1022001B0BDE8F083A6
:102A9000054601202C6830764CF250308846FFF70E
:102AA000A1FA022C1CD100284ED1002042F21004C1
:102AB000F061C4F20204206840F004002060206845
:102AC00040F0400020604CF25030FFF78BFA216854
:102AD00021F0040121600021317601B0BDE8F083CE
:102AE00090BB4FF0FF30C8F80000D5E9027007EB4B
:102AF0008020874228D242F21004C4F202044FF030
:102B0000000900BFC6F81C90206840F00200206059
:102B10006760206840F0400020604CF25030FFF7C2
:102B200061FA216821F00201216098B9D5E902011A
:102B300007F5806700EB81208742E3D30020002166
:102B4000317601B0BDE8F08301200021317601B07B
:102B5000BDE8F083C8F800700021317601B0BDE80F
:102B6000F083000042F21001C4F20201086840F054
:102B7000800200200A6070472DE9F04F81B040F2DA
:102B80009019C2F20009924699F81820012A03D13F
:102B9000022001B0BDE8F08F8046012089F81800BE
:102BA0004CF250309B460E46FFF71CFAA0BB404645
:102BB00042F21007B8F1020F18BF0420C4F2020756
:102BC000B8F1010F08BF404645424FF0000800240D
:102BD000C4F12001C9F81C802AFA04F00BFA01F1B3
:102BE0003A680843B4F1200158BF2BFA01F042F0D3
:102BF0000101396026F8020B4CF25030FFF7F2F970
:102C00003968013521F0010248F100013A6018B934
:102C1000002904F11004DBD0002189F8181001B05C
:102C2000BDE8F08F42F20400C4F20200C168090658
:102C30005CBF0020704740F22311C4F2675101606D
:102C400048F6AB11CCF6EF510160C068C0B2C009C4
:102C5000704700002DE9F04F82B00E68002E00F0A2
:102C6000038141F20042C4F20102042340F2004E0B
:102C7000904208BF03234FF6FF7CC4F2010E00937D
:102C800000240123C1F2100C4FF0000A4FF000099C
:102C900049E000BF012704F00C030F229A402BEA01
:102CA000020207FA03F34FEA9A051A4346F8252071
:102CB000D1F804B040F20C455FEACB22DEF80820E0
:102CC00054BF22EA080242EA0802C4F20105CEF823
:102CD00008202A685FEA8B2354BF22EA080242EAEE
:102CE00008022A605FEA8B33DEF8042054BF22EA30
:102CF000080242EA08025FEACB33CEF80420DEF88D
:102D000000204FF0010354BF22EA080242EA080201
:102D1000CEF800200E680AF1010A36FA0AF204F130
:102D2000040400F0A18003FA0AF816EA080FF1D0B3
:102D30004E68664512DC122E56D8DFE806F0350BD9
:102D40004549555555555555555555555555554D57
:102D5000510000BFD1F80C9046E000BF4FF6FF7263
:102D6000C1F2210296420FDC0022C1F2110296420A
:102D70001AD00022C1F21202964215D00022C1F2EE
:102D80002102964210D02FE00022C1F22202964288
:102D90000AD00022C1F23102964205D00022C1F2CF
:102DA0003202964220D100BF8A684AB1012A14BF7C
:102DB000C0F81480C0F810804FF0080914E000BF7C
:102DC0004FF0040910E000BFCA6802F108090BE0E7
:102DD0004FF0000908E000BFCA6802F1040903E0EF
:102DE000CA6802F10C0900BF22460646BAF1080F74
:102DF00024BF203A043637680F25954027EA050599
:102E000009FA02F22A433260CA79D2067FF582AF0C
:102E100041F21803C4F202031A68AEF57E7642F05E
:102E200001021A601A6802F001020192019A2AF066
:102E3000030256F802B040F60002C4F201029042CA
:102E400010D040F60042C4F2010290423FF422AF9B
:102E500041F20002C4F20102009F904208BF022723
:102E600019E700BF002716E702B0BDE8F08F0000A9
:102E7000002A08BF090401617047000040F23020B9
:102E8000C2F200000068704770B5B8B3044690F80D
:102E90003D0028B9002084F83C00204600F048FDA1
:102EA000242084F83D002068016821F001010160C0
:102EB000016841F400410160016821F400410160B2
:102EC00001F02CF848F28041C0F21E0140F60013D8
:102ED000D4F804E088424FF00001C0F23D0348F20C
:102EE000A16C4FF0000238BF01219842C0F2010CE2
:102EF00038BF0122E64538BF0A460AB1012070BD3D
:102F00004DF68361C4F21B31A0FB01122168950CC0
:102F10004B684FF4967623F03F0343EA92437543A0
:102F200044F6D3564B60C1F262060B6AA5FB065607
:102F3000B50923F03F03E64538BF950C6A1C1A43D8
:102F40000A62CA6948F2A0664CF6FF73C0F2010635
:102F5000B64522EA03020BD801384FEA4E03B0FB14
:102F6000F3F001306FF31F30042898BF04201EE0F7
:102F7000A368013863B119230EFB03F3B0FBF3F030
:102F800001306FF31F3078B100F5804008E000BFDA
:102F90000EEB4E03B0FBF3F001306FF31F3028B19E
:102FA00000F5004003E000BF012000E001201043D5
:102FB000C8610868D4E9072320F0C0001043184313
:102FC0000860886848F2FF3204F10C0690434CCE4A
:102FD00018431043A5698860C86820F0FF0030439B
:102FE0002843C860086840F00100086000202021E4
:102FF000206484F83D10206384F83E0070BD00001A
:103000002DE9F04784B0044600201F461646894645
:103010000290FFF733FF94F83D10202920D1054698
:10302000206800BF8169890716D5FFF727FF411B7C
:1030300020681A29F6D381698907F3D50020202159
:10304000206384F83D1084F83E00216C41F020019B
:10305000216484F83C0003E094F83C10012903D17A
:10306000022004B0BDE8F087012184F83C1001681B
:10307000C90703D1016841F0010101600168DDF871
:10308000308021F400610160222184F83D1010217C
:1030900084F83E100021216466626785618D0227F5
:1030A000C0F201072185A7F10211E162E16A02681D
:1030B00011F5803F42F48062026018BF01293DD1C2
:1030C000016841F48071016020464FF00111002237
:1030D0004346009502F006FB50B120680068C00529
:1030E00044BF4FF400702064012004B0BDE8F087B5
:1030F0002069B0F5804F27D149F00100C0B22168A6
:1031000042460861204639462B4602F0D5FB00288E
:10311000EAD1208D02284BD001285FD0002840F052
:1031200073800020039020684169039181690391B5
:103130000399016841F40071016071E00829BFD072
:10314000216B1129BCD0BFE7062000EAD916206800
:1031500006F1F0010161B91D204642462B4602F0FE
:10316000ABFB0028C0D120685FFA89F101612046DD
:10317000394642462B4602F09FFB0028B4D100207E
:1031800003902068002241694346039181690391BD
:103190000399016841F48071016020464FF00111EC
:1031A000009502F09FFA002897D146F0F100A6E7BB
:1031B0002068016841F400610160EFF3108072B68D
:1031C000002003902068416903918169039103996C
:1031D000016821F48061016062B621E02068016825
:1031E00021F480610160EFF3108072B6002003903B
:1031F000206841690391816903910399016841F451
:103200000071016062B60BE02068016841F48061E2
:103210000160002103914169039180690390039843
:10322000208D002800F0CC8040F21C094BF2895A16
:103230000237C2F20009C1F2F84A23260EE000BFAD
:1032400010690870606A218D01306062481E208517
:10325000618D01396185010400F0B28080B20328DC
:103260000CD802282CD001284AD1204641462A46B3
:1032700002F092FB002800F09F8035E7204641468F
:103280002A4602F089FB00287FF42EAF2068616A8D
:1032900000690870606A2268411C208D61620138F3
:1032A0002085638D013B638553695B07D3D580B26D
:1032B0000328C5D1106820F480601060C0E700BF0B
:1032C0002046394600224346009502F00BFA0028BA
:1032D0007FF40AAFEFF3108072B62068616A02686B
:1032E00042F40072026000690870606A218D01304A
:1032F0006062481E2085608D0138608562B65BE0A3
:103300002046394600224346009502F0EBF900289A
:103310007FF4EAAE2068016821F480610160EFF378
:10332000108072B62068616A00690870606A218D39
:103330000130013960622185618D01396185D9F8DB
:103340000010C908A1FB0A12110A714302910299E7
:1033500001390291029900293ED021684A69520739
:103360001AD40299013902910299A9B321684A69D4
:10337000520711D4029901390291029961B321686F
:103380004A69520708D4029901390291029919B386
:1033900021684A695207DAD50A6842F400720A6065
:1033A00009690170606A218D01306062481E2085C4
:1033B000608D0138608562B62068616A006940E707
:1033C000202084F83D00002084F83E0084F83C0072
:1033D00004B0BDE8F08700BF00202021206384F8FE
:1033E0003D1084F83E00216C41F02001216462B65A
:1033F00084F83C00012004B0BDE8F0872DE9F043DB
:1034000083B01E46174689460446FFF737FD94F8F9
:103410003D10202920D10546206800BF8169890719
:1034200016D5FFF72BFD411B20681A29F6D38169B9
:103430008907F3D500202021206384F83D1084F80B
:103440003E00216C41F02001216484F83C0003E03F
:1034500094F83C10012903D1022003B0BDE8F083A9
:10346000012184F83C100168C90703D1016841F0CB
:1034700001010160016840F2020821F4006101606D
:10348000212184F83D10102184F83E100021216490
:1034900067626685618DC0F201082185A8F102117D
:1034A000E162E16A0A9E11F5803F18BF01291DD132
:1034B000016841F48071016020464FF00111002243
:1034C0003346009502F00EF950B120680068C0053F
:1034D00044BF4FF400702064012003B0BDE8F083C6
:1034E0002069B0F5804F07D1FE2015E00829DFD014
:1034F000216B1229DCD0DFE7062000EAD910216811
:10350000F030086108F10601204632462B4602F0F1
:10351000D3F90028E0D1FF20216800EA0900086102
:103520002046414632462B4602F0C6F90028D3D148
:1035300000200290206841690291806902900298FF
:1035400006E000BF204631462A4602F06BF818BB61
:10355000208D68B3204631462A4602F065FAD8B974
:10356000606A2168024612F8013B0B616262628D5B
:10357000013A6285228D531E23854F697F07E1D56D
:103580001B04DFD0437802300B616062608D01382C
:103590006085901E2085D5E7206C04289CD120688A
:1035A000016841F400710160012003B0BDE8F083BF
:1035B0002068016841F400710160202084F83D001A
:1035C000002084F83E0084F83C0003B0BDE8F0839E
:1035D0002DE9F04F85B004460020994616460F4667
:1035E0000490FFF74BFC94F83D10202927D10546A5
:1035F000206800BF816989071CD5FFF73FFC411B8C
:1036000020681A29F6D381698907F3D50020202183
:10361000206384F83D1084F83E00206C04F13C0ADD
:1036200040F020002064022000218AF8001005B03C
:10363000BDE8F08FA2461AF83C1F012904D10220F0
:1036400005B0BDE8F08F00BF01228AF800200368B2
:10365000DDE90F180E9ADB0703D1036843F001037D
:103660000360036823F400630360222084F83D00B4
:10367000402084F83E000020206462626185608DF5
:10368000394620850020CFF6FF70E06220463246A2
:103690004B46CDF80080019501F038FF20B10120A4
:1036A00005B0BDE8F08F00BF208D022810D00128A2
:1036B00024D0002838D1002003902068416903916C
:1036C000816903910399016841F40071016037E059
:1036D0002068016841F400610160EFF3108072B668
:1036E0000020039020684169039181690391039947
:1036F000016821F48061016062B621E02068016800
:1037000021F480610160EFF3108072B60020039015
:10371000206841690391816903910399016841F42B
:103720000071016062B60BE02068016841F48061BD
:10373000016000210391416903918069039003981E
:10374000208D002800F0D480042740F21C094BF2A1
:10375000895BC0F20107C2F20009C1F2F84B2326CF
:1037600017E000BF204641462A4602F015F900281E
:1037700095D12068616A00690870606A218D013006
:103780006062481E2085618D01396185010400F069
:10379000AF8080B2032867D8022800F08980012812
:1037A000E0D02046394600224346009501F09AFFBA
:1037B00000287FF474AF2068016821F48061016003
:1037C000EFF3108072B62068616A00690870606A61
:1037D000218D0130013960622185618D013961855A
:1037E000D9F80010C908A1FB0B12110A714304910A
:1037F0000499013904910499002900F08580216819
:103800004A6952071ED40499013904910499002988
:1038100000F07A8021684A69520713D4049901396B
:103820000491049900296FD021684A69520709D48C
:103830000499013904910499002965D021684A69E5
:103840005207D5D50A6842F400720A60096901700E
:10385000606A218D01306062481E2085608D0138CC
:10386000608562B685E700BF204641462A4602F0E1
:1038700093F800287FF413AF2068616A006908702C
:10388000606A2268411C208D616201382085638D49
:10389000013B638553695B077FF578AF80B20328EE
:1038A00003D1106820F480601060106964E700BFE5
:1038B0002046394600224346009501F013FF0028B8
:1038C0007FF4EDAEEFF3108072B62068616A026893
:1038D00042F40072026000690870606A218D013054
:1038E0006062481E2085608D0138608562B640E7C1
:1038F000202084F83D00002084F83E0000218AF852
:10390000001005B0BDE8F08F00202021206384F86E
:103910003D1084F83E00206C40F02000206462B628
:10392000012000218AF8001005B0BDE8F08F0000EA
:1039300010B586B045F200410068C4F200010022D3
:103940008842049202D006B010BD00BF41F21804B4
:10395000C4F20204206840F008002060206800F0F3
:10396000080001900198C0200290122003900320CB
:10397000059001F5384002A9FFF76CF9606840F442
:1039800000106060606800F400100190019806B0BB
:1039900010BD000040F2140040F23021C2F20000DD
:1039A000C2F2000100780A68104408607047000005
:1039B00080B542F20000C4F20200016841F010013B
:1039C0000160032000F08EF80F2000F005F800F0F1
:1039D00027F8002080BD000070B540F21406C2F246
:1039E000000640F21C013278C2F200014FF47A73F3
:1039F0000968B3FBF2F20446B1FBF2F1084601F0AC
:103A0000E1F80F2C4FF0010508D838B94FF0FF301E
:103A100021460022002500F039F87460284670BD68
:103A200082B041F21800C4F202000168022241F0A3
:103A300001010160016801F00101019101994168F2
:103A400041F080514160406800F080500090009843
:103A50000420C4F20100016862F31A61016002B03F
:103A600070470000002848BF7047C1B200F01F0037
:103A7000012202FA00F04EF20012CEF2000242EAF7
:103A8000D10121F0030108607047000010B54EF627
:103A90000C5CCEF2000CDCF80030C3F3022E8EF08A
:103AA0000704042C28BF0424BEF103034FF0FF3E9B
:103AB0000EFA04F438BF0023A14399400EFA03F331
:103AC0009A43114300F00F0200F160430901043AE8
:103AD00003F564436244002848BF02F10C031970E7
:103AE00010BD00004EF60C51CEF200010A684FF6F0
:103AF000FF031A4060F30A2242F0806040F0FD703C
:103B0000086070472020C4F20E2001210160704738
:103B100010B547F20002C4F2000213684EF61054CA
:103B200023F0020313601368CEF2000423F00103B4
:103B3000184310602068012940F00400206005D17E
:103B400030BF206820F00400206010BD40BF01F0AD
:103B5000CFFF01F0CDFF206820F00400206010BDF1
:103B600080B5012818D0022836D0102832D141F271
:103B70000401C4F202010A6851F8040CC00129D5FD
:103B8000C2F383402DA3185CD2033DD440F600124B
:103B9000C0F23D02504343E041F20400C4F202008F
:103BA000C16940F202320A40B2F5817F04BF4FF48E
:103BB000004080BD01F44071B1F5407F1CD0B1F5EB
:103BC000007F07D1006A49F64041800701EAE070B2
:103BD00080BD00BF002080BD00F0B4F941F20401B7
:103BE000C4F2020109680222C1F3813102EB4101F2
:103BF000B0FBF1F080BD00BF50F8040C4FF224413F
:103C0000800301EAE07080BD0A6810A3C2F340425D
:103C10009A5C41F20023C0F27A03B3FBF2F2504304
:103C20000968490248BF80BD4AF6AB214000CAF688
:103C3000AA21A0FB0101480880BD00BF02030405C2
:103C4000060708090A0B0C0D0E0F101001020000E8
:103C50002DE9F04182B00446007841F21C06C0070D
:103C6000C4F202064AD0306810F0805808D130689B
:103C700040F080503060306800F080500190019832
:103C800047F20007C4F200073868C00512D438684C
:103C900040F480703860FFF7F1F805463868C005D9
:103CA00008D4FFF7EBF8401B6428F7D9032002B0D3
:103CB000BDE8F081706810F4407012D0616801F4C2
:103CC000407188420DD0706840F24042C4F24222F6
:103CD000012320F4407113600023C007136071605A
:103CE0002AD17068616820F440700843B8F1000F71
:103CF000706003D1306820F0805030602068810708
:103D000007D556F8181CA26821F44041114346F823
:103D1000181CC00604D4002002B0BDE8F08100BF2A
:103D200056F8180CE16820F48000084346F8180C97
:103D3000002002B0BDE8F081FFF7A0F8054641F28F
:103D4000883700BF70688007CBD4FFF797F8401B17
:103D5000B8424FF00300F5D9EBE700002DE9F0433E
:103D600081B0002800F0858042F20008C4F2020809
:103D70000446D8F800000D4600F0070088420CD237
:103D8000D8F8000020F007002843C8F80000D8F851
:103D9000000000F00700A8426BD1206841F204093E
:103DA0008107C4F2020917D5410705D5D9F80010DB
:103DB00041F4E061C9F80010010705D5D9F80010F9
:103DC00041F46051C9F80010D9F80010A26821F040
:103DD000F0011143C9F80010C00741D1D8F8000024
:103DE00000F00700A8420CD9D8F8000020F0070026
:103DF0002843C8F80000D8F8000000F00700A842E7
:103E000037D12068410707D5D9F80010E26821F4BE
:103E1000E0611143C9F80010000708D5D9F8000087
:103E2000216920F4605040EAC100C9F80000D9F8C7
:103E3000002002F00C00082841F20020C0F27A00B5
:103E400050D148F2C623C2F38341C0F60003595C47
:103E5000D2033BD440F60010C0F23D00484341E09D
:103E6000606802280AD001282AD159F8041C890365
:103E700008D4012001B0BDE8F08300BF59F8041C4C
:103E80008901F6D5D9F8001021F003010843C9F8DB
:103E90000000FEF7F3FF064641F28837D9F800002C
:103EA000616800F00C00B0EB810F97D0FEF7E6FFE1
:103EB000801BB842F2D9032001B0BDE8F08300BFF7
:103EC00059F8041C8907D4D5DCE700BFD9F80020D5
:103ED00048F2C423C2F34042C0F600039A5C484350
:103EE000B0FBF2F0D9F8001048F2AC22C1F3031194
:103EF000C0F60002515C40F21C0220FA01F140F2CF
:103F00001800C2F200000068C2F200021160FFF760
:103F100063FD002001B0BDE8F083000040F21C000A
:103F200041F20401C2F20000C4F202010068096813
:103F300048F2BC22C1F30221C0F60002515CC84025
:103F40007047000040F21C0041F20401C2F2000080
:103F5000C4F202010068096848F2BC22C1F3C22120
:103F6000C0F60002515CC840704700002DE9F041E6
:103F700082B0002868D00446007841F20006C007ED
:103F8000C4F2020625D0706800F00C0004281BD093
:103F9000706800F00C00082802D17068C00313D4C8
:103FA0006068002800F06881B0F5A02F00F07C81E7
:103FB000B0F5803F00F07C81306820F480303060C4
:103FC000306820F4802076E13068800301D5606895
:103FD000D0B32078800718D5706810F00C0F07D088
:103FE000706800F00C0008286ED17068C0036BD4B4
:103FF0003068800702D52069012825D130686169C1
:1040000020F0F80040EAC1003060207800071FD49B
:104010002078400732D4E56995B1706800F00C0053
:10402000082840F08F80012D0ED07068216A00F4BE
:1040300080328A4208D1616A00F47010884203D14C
:10404000002002B0BDE8F081012002B0BDE8F0819F
:10405000A069002862D00020C4F242200121C0F8EB
:104060008014FEF70BFF0546706A800700F18C8014
:10407000FEF704FF401B0228F6D92AE1F06910F090
:10408000805808D1F06940F08050F061F06900F08C
:1040900080500090009847F20007C4F2000738688B
:1040A000C00529D4386840F480703860FEF7E6FE19
:1040B000054600BF3868C0051ED4FEF7DFFE401B72
:1040C0006428F7D905E100BF2069002840F200000C
:1040D000C4F2422000F0828001210160FEF7CEFE92
:1040E000054600BF306880073FF588AFFEF7C6FE83
:1040F000401B0228F6D9ECE0E068002800F0808040
:10410000052800F09780012800F09880306A20F0A0
:1041100001003062306A20F0040092E00020C4F216
:1041200042200021C0F88014FEF7A8FE054600BF1B
:10413000706A80077FF56CAFFEF7A0FE401B022877
:10414000F6D9C6E00027C4F2422700203866FEF701
:1041500095FE022D05460BD13068800140F1BE80EE
:10416000FEF78CFE401B02284FF00300F4D968E7ED
:10417000306880017FF564AFFEF780FE401B0228A7
:104180004FF00300F4D95CE740F21C00C2F20000DB
:10419000006844F6D351C1F26201A0FB0101480A54
:1041A000019000BF00BF0198411E002801913FF41B
:1041B0002FAF00BF0198411E002801913FF428AFA6
:1041C00000BF0198411E002801913FF421AF00BFBC
:1041D0000198411E00280191E4D119E700210160F6
:1041E000FEF74CFE054600BF306880077FF50DAF37
:1041F000FEF744FE401B02284FF00300F4D920E7ED
:10420000306A20F001003062306A20F00400306231
:10421000FEF734FE054641F2883700BF306A80075A
:1042200020D5FEF72BFE401BB8424FF00300F5D916
:1042300007E700BF306A40F004003062306A40F0A7
:1042400001003062FEF71AFE054641F2883700BFD2
:10425000306A800706D4FEF711FE401BB842F7D93A
:1042600037E000BFB8F1000F7FF4D5AEF06920F061
:104270008050F061CFE600BF306820F480303060BD
:10428000306820F480203060FEF7F8FD054600BF5E
:10429000306880037FF59DAEFEF7F0FD401B64287B
:1042A0004FF00300F4D9CCE6306840F48020306051
:1042B000306840F480303060FEF7E0FD054600BF16
:1042C000306880033FF585AEFEF7D8FD401B6428BB
:1042D000F6D9032002B0BDE8F08100BF206AB0F536
:1042E000803F05D17168A26821F4003111437160EB
:1042F0007168626A21F474111143084370600120EF
:104300003866FEF7BBFD0446306880013FF598AE85
:10431000FEF7B4FD001B02284FF00300F4D990E62D
:1043200040F2EC00C2F200000178013101707047E8
:1043300010B5044600680168890744BF40685FEA19
:10434000807009D440F21440C4F201004FF40031EF
:1043500001600120607410BD2046FFF7E1FF206876
:10436000416821F002014160ECE700002DE9F047CF
:10437000064600284FF0010000F0A5800C460029F9
:1043800000F0A18030684168490700F1D98091466A
:104390008269C169836948F6890583EA02073F0497
:1043A0001CBFC1691A4689B241EA02414BF2C532CB
:1043B000C9F2A212A1FB0223DA0A4FF4616302FBE5
:1043C00013139FB26F437D0D65702D01A5EB5757F9
:1043D000A3EB870345F28017C0F20107B942A3702F
:1043E00036D344F20753CCF22E23A1FB03374AF60F
:1043F000AB23CAF6AA23A2FB03352B0903EB430325
:10440000A2EBC3022270026A406A4FEA174880B2E8
:1044100040EA0240451A98BF4FF0FF35421C4AF669
:104420008062CFF6FE7208FB021A08BF0546FEF74F
:1044300025FD074630684168890647D4FEF71EFD12
:10444000C01BB0F57A7FF5D90120BDE8F08700BF29
:104450002270B9F1000F00F09F802178CD26A1F1E4
:104460000A03DFB27743FD0A05EB85056278A3EB0B
:1044700045030125A07805EBD727092988BF43EA22
:1044800007112170A2F10A01CBB27343DF0A07EBD7
:104490008707A1EB470105EBD323092A88BF41EA2F
:1044A0000312A0F10A016270CAB27243D30A03EB8D
:1044B0008303A1EB430105EBD222092888BF41EA1F
:1044C0000210A0700020BDE8F08700BF416841F0F5
:1044D000100141604FEA1A4181611FFA8AF1C161FE
:1044E000416821F010014160FEF7C8FC074600BF9B
:1044F00030684068800609D4FEF7C0FCC01BB0F5E8
:104500007A7FF5D90120BDE8F08700BF681C11D083
:104510005544FEF7B3FC074630684168890613D45A
:10452000FEF7ACFCC01BB0F57A7F4FF00100F3D969
:10453000C9E700BF30464FF0FF3101F03BFC18B334
:104540000120BDE8F08700BF416841F010014160E3
:10455000290C0162A9B24162416821F01001416059
:10456000FEF78CFC074600BF3068406880060BD41D
:10457000FEF784FCC01BB0F57A7F4FF0010088BFC6
:10458000BDE8F087F0E700BF3046414601F0BCFAD5
:10459000B9F1000F7FF461AF0020BDE8F0870000A3
:1045A00070B5002866D00446407C20B900202074F5
:1045B000204600F06FF8022060742068416821F006
:1045C00008014160FEF75AFC064600BF20684568B6
:1045D000FEF754FC290705460ED4A81BB0F57A7FD8
:1045E000F4D9012504206074284670BDFEF746FC0E
:1045F000401BB0F57A7FF4D8216848688006F5D56D
:10460000486846F62C4240F0100048604868C4F202
:10461000000220F007004860A06818B1536823F03A
:1046200001035360136823F46073184310606068DB
:10463000421C06D101200125FFF792FA30B3216810
:104640000138C0F3034280B28A60C860486820F035
:1046500010004860FEF712FC054600BF2068406865
:10466000800609D4FEF70AFC401BB0F57A7FF5D925
:10467000B7E700BF012070BD40F201100025A4F88B
:104680000D000120E5736074284670BD042060743D
:10469000284670BD80B582B0006842F60001C4F2C1
:1046A000000188421CBF02B080BDFFF72BFA41F227
:1046B0001C00C4F202000168002241F000610160A8
:1046C0000068012100F000600190019840F23C4038
:1046D000C4F24220016029200021FFF7D7F92920E8
:1046E00002B0BDE88040FFF7BDB9000070B582B0F0
:1046F000044600208DF80600ADF804004FF00100DC
:104700009CB10D4689B1207C01284FF002000CD0ED
:10471000012116462174607401A920460022FFF78A
:1047200025FE00284FF0010002D002B070BD00BF8E
:104730009DF804009DF805204FF461619DF8063056
:104740004843C2EB021200EB82002A781844FEB103
:10475000130903EB830302F00F0202EB4302D2B210
:1047600051436A78AB78160906EB860602F00F0211
:1047700002EB4602D2B2C2EB021201EB82011A092D
:1047800002EB820203F00F0303EB420207E000BFDB
:104790006B785143AA78C3EB031301EB8301D2B2C8
:1047A0008E1806F58031864238BF01F5A346FEF724
:1047B00065FB054620684168890607D4FEF75EFB65
:1047C000401BB0F57A7FF5D91AE000BF416841F08F
:1047D00010014160310C0162B1B24162416821F0C7
:1047E00010014160FEF74AFB054600BF20684168A2
:1047F000890609D4FEF742FB401BB0F57A7FF5D954
:104800000120042116E000BF416821F0020141604F
:10481000016841F00201016040F20040C4F2010071
:10482000016841F400310160816841F40031816028
:104830000020012161740021217402B070BD0000CC
:10484000F0B581B0044600284FF0010018BF0029E0
:1048500002D101B0F0BD00BF207C01284FF0020062
:10486000F7D0012323746074CB78BAB1180900EB38
:10487000800003F00F0202EB400348788A780709B2
:1048800007EB870700F00F0000EB4707100900EB6C
:10489000800002F00F0202EB400001E04F788878C0
:1048A000022FDAB2E3736773A0730FD817237B4329
:1048B00048F63967C3F6E307A3FB0737C7F3470C8E
:1048C00002F2CF7340F2D47E0CE000BF47F2D9165B
:1048D000FFB2C0F21406774302F5FA634FEAD74CF1
:1048E00040F2D27EC0B210449D0841F27B47704432
:1048F0006F431D0940F63E2600EB93007543A0EB85
:10490000574000EB1540604482B242F293435A4351
:10491000A0EB12439BB25B0803EB12429208A2EB9E
:10492000C20210442268207308709169D0699369AB
:10493000002683EA01073F041CBFD069194680B2F4
:1049400040EA014045F69071C0F2010188421BD354
:1049500044F20751CCF22E21A0FB0112110C40F2BF
:10496000A3225143A0EBC117FEF788FA054600BF0A
:104970002068416889060DD4FEF780FA401BB0F527
:104980007A7FF5D920E000BF0121002061742674F0
:1049900001B0F0BD416841F010014160390C816106
:1049A000B9B2C161416821F010014160FEF766FAB9
:1049B000054600BF2068416889060BD4FEF75EFA01
:1049C000401BB0F57A7FF5D901200421617426746B
:1049D00001B0F0BD016A406A80B240EA0140B842CD
:1049E00030D200F5803000F5A347FEF747FA0546C0
:1049F00020684168890607D4FEF740FA401BB0F5ED
:104A00007A7FF5D9E0E700BF416841F010014160CD
:104A1000390C0162B9B24162416821F01001416074
:104A2000FEF72CFA05462068406880060AD4FEF797
:104A300025FA411B0120B1F57A7F4FF00401F2D92C
:104A4000A4E700BF002001216174267401B0F0BD0D
:104A500070B5044600284FF0010018BF002901D1AD
:104A600070BD00BF207C01284FF0020008BF70BD60
:104A7000012323746074087802B3020902EB8202F6
:104A800000F00F0000EB4200C0B24FF461625043EF
:104A90004A788978130903EB830302F00F0202EBD3
:104AA0004302D2B2C2EB021200EB82000A0902EB0F
:104AB000820201F00F0101EB420108E04FF4616254
:104AC00050434A788978C2EB021200EB8200C9B2E7
:104AD0004618FEF7D3F9054620684168890607D4D1
:104AE000FEF7CCF9401BB0F57A7FF5D91AE000BF8C
:104AF000416841F010014160310C8161B1B2C16186
:104B0000416821F010014160FEF7B8F9054600BF89
:104B10002068416889060BD4FEF7B0F9401BB0F558
:104B20007A7FF5D90120042161740021217470BDC0
:104B3000416821F005014160016A406A80B240EAA3
:104B40000140B0422ED200F5803000F5A346FEF7BA
:104B500095F9054620684168890607D4FEF78EF965
:104B6000401BB0F57A7FF5D9DCE700BF416841F022
:104B700010014160310C0162B1B24162416821F023
:104B800010014160FEF77AF9054600BF20684068D1
:104B9000800607D4FEF772F9401BB0F57A7FF5D98D
:104BA000C0E700BF0020012161740021217470BDA5
:104BB0004EF21000CEF20000016841F002010160E7
:104BC00070470000411E0020B0EB116F1CBF012098
:104BD00070474EF21002CEF2000251604EF62351A1
:104BE000CEF20001F0230B70072190601160704736
:104BF0004EF21000CEF20000016821F002010160C7
:104C0000704700007047000070470000B0B582B0E8
:104C1000044600680168C368426901F02F05202D31
:104C200003F0200506D12DB1204602B0BDE8B0400A
:104C300001F0FCB85FEA017C1EBF02F0010E03F434
:104C4000907212EB0E0253D1226B012A05D111F0A2
:104C5000100218BF13F0100236D10A0622D513F045
:104C600080021FD094F8411021293FD1A168B1F5ED
:104C7000805F03D12169002900F07082216A4A1CFB
:104C8000226209784160E18C01390A04E1842DD166
:104C9000C16821F08001C160C16841F04001C1607C
:104CA00002B0B0BD490621D513F040011ED0C16845
:104CB00021F04001C1602021204684F8411002B05B
:104CC000BDE8B04000F01EBC0021019101680191D7
:104CD0004168019101994069400613D4A08DE18D8E
:104CE000E28D002A18BF884240F0BA8102B0B0BD00
:104CF000CA0718BF13F4807240F0B6804A0700F16B
:104D0000B980BEE0E06B016849688AB2002AEDD044
:104D1000A38D9A42EAD2E1858069202800F09C8028
:104D2000206850E8030F216820F4807041E80302F6
:104D3000DAB1206850E8030F216820F4807041E860
:104D4000030292B1206850E8030F216820F48070BC
:104D500041E803024AB1206850E8030F216820F4BB
:104D6000807041E80302002ADAD1206850E8050F7C
:104D7000216820F0010041E80502DAB1206850E81E
:104D8000050F216820F0010041E8050292B120687A
:104D900050E8050F216820F0010041E805024AB102
:104DA000206850E8050F216820F0010041E8050265
:104DB000002ADAD1206850E8050F216820F0400071
:104DC00041E80502DAB1206850E8050F216820F0BB
:104DD000400041E8050292B1206850E8050F2168C3
:104DE00020F0400041E805024AB1206850E8050F74
:104DF000216820F0400041E80502002ADAD1202095
:104E000084F8420000202063206850E8030F2168E6
:104E100020F0100041E80302DAB1206850E8030FE7
:104E2000216820F0100041E8030292B1206850E8A8
:104E3000030F216820F0100041E803024AB1206806
:104E400050E8030F216820F0100041E80302002A17
:104E5000DAD1E06BFDF77CFD02206063A08DE18D6F
:104E6000401A81B2204674E1626C42F00102626431
:104E70004A0706D5BEF1000F03D0626C42F0020271
:104E800062648A0706D5BEF1000F03D0626C42F05F
:104E900004026264BCF1000F09D545EA0E02B2FAC1
:104EA00082F2520903D1626C42F008026264626CC1
:104EB000002A3FF41BAF11F0200118BF002D03D0D2
:104EC000204600F0B3FF20684069616C00F04000AC
:104ED00001F00801401800F0B58000BF206850E8DC
:104EE000030F216820F4907041E80302BAB32068F0
:104EF00050E8030F216820F4907041E8030272B378
:104F0000206850E8030F216820F4907041E8030204
:104F10002AB3206850E8030F216820F4907041E81C
:104F20000302002ADAD11AE0206850E8050F216850
:104F300020F0010041E80502DAB1206850E8050FD1
:104F4000216820F0010041E8050292B1206850E894
:104F5000050F216820F0010041E805024AB12068F0
:104F600050E8050F216820F0010041E80502002A01
:104F7000DAD1206B012824D1206850E8030F216882
:104F800020F0100041E80302DAB1206850E8030F76
:104F9000216820F0100041E8030292B1206850E837
:104FA000030F216820F0100041E803024AB1206895
:104FB00050E8030F216820F0100041E80302002AA6
:104FC000DAD1202084F84200002020632068406964
:104FD00040063FD5206850E8050F216820F04000CA
:104FE00041E80502DAB1206850E8050F216820F099
:104FF000400041E8050292B1206850E8050F2168A1
:1050000020F0400041E805024AB1206850E8050F51
:10501000216820F0400041E80502002ADAD1E06B67
:10502000C0B145F62161C0F600014163FDF7B4FC53
:1050300000283FF45BAEE06B416B02B0BDE8B040CE
:10504000084700BF2046FFF7DFFD0020606402B084
:10505000B0BD00BF204602B0BDE8B040FFF7D4BDF0
:10506000401A216851E8031F226821F4907142E838
:105070000313DBB1216851E8031F226821F490710A
:1050800042E8031393B1216851E8031F226821F419
:10509000907142E803134BB1216851E8031F226865
:1050A00021F4907142E80313002BDAD1216851E812
:1050B000051F226821F0010142E80513DBB12168D8
:1050C00051E8051F226821F0010142E8051393B160
:1050D000216851E8051F226821F0010142E805130B
:1050E0004BB1216851E8051F226821F0010142E817
:1050F0000513002BDAD1202184F84210002121630E
:10510000216851E8031F226821F0100142E80313CF
:10511000DBB1216851E8031F226821F0100142E849
:10512000031393B1216851E8031F226821F0100195
:1051300042E803134BB1216851E8031F226821F0B4
:10514000100142E80313002BDAD1022281B220467B
:10515000626302B0BDE8B040FFF754BD216A31F888
:10516000022B6FF35F22426021628CE5002804BFAE
:105170000120704710B5044690F8410028B900207E
:1051800084F84000204600F063F8242084F84100B1
:105190002068D4E90212C36823F40053C360036992
:1051A00023F440531A430261D4E904231143C26833
:1051B000194341F20C639A431143C1604169A269EA
:1051C00021F44071114343F60002C4F201029042FF
:1051D000416103D0FEF7A2FE02E000BFFEF7B2FE7F
:1051E0006268192148439100B0FBF1F048F21F5169
:1051F000C5F2EB11A0FB01235A094FF69C73C0F6D0
:10520000FF7302FB0300322303EB0010A0FB01013C
:10521000F02303EA5113206803EB0212C1F3431198
:1052200011448160016921F490410161416921F0DB
:105230002A014161C16841F40051C1600020202170
:10524000606484F8411084F84210606310BD00006F
:1052500070B586B040F60004C4F20104006804F59D
:10526000405100268842049602D006B070BD00BFAF
:1052700041F21800C4F20200016802AD41F480411D
:105280000160016801F4804101910199016841F0D8
:10529000040101600068294600F0040001900198B3
:1052A0004FF40070029002200390032005902046E6
:1052B000FDF7D0FC4FF48060CDE902062046294678
:1052C0000496FDF7C7FC252002210022FEF7DEFB35
:1052D0002520FEF7C7FB06B070BD000090F84230F5
:1052E000202B1CBF0220704700294FF0010318BF7C
:1052F000002A01D1184670470023036381622221EE
:105300008285C285436480F842100169006819B142
:10531000C16841F48071C1604169002341F001011D
:105320004161C16841F02001C1601846704700002A
:10533000006843F60001C4F20101884218BF7047BB
:1053400040F28000C2F2000041780278B2B942888F
:105350007E2A11D843880A2903F10102428040F2D3
:10536000B012C2F20002D15408D141880023535434
:105370000121017002E000BF00214180411C40F288
:105380004410C2F200000122FFF7A8BF2DE9F0414E
:10539000044690F8410020281CBF0220BDE8F0819F
:1053A0000D4600294FF0010000F0AA801646002AA1
:1053B00008BFBDE8F081002060642120984684F891
:1053C0004100FDF75BFDA684E684A1680646B1F5C1
:1053D000805F02D12069002862D02F460025E08C32
:1053E000002861D018F1010018D0B8F1000F37D1B2
:1053F000216808E017F8010B4860E08C0138E08470
:10540000E08C002851D00868000673D5002FF1D138
:1054100035F8020B00276FF35F20EDE7216802E00B
:105420000868000609D40868000606D40868000663
:105430005CBF08685FEA0060F2D51FB117F8010B86
:1054400005E000BF35F8020B00276FF35F204860CE
:10545000E08C0138E084E08C0028E4D125E000BF36
:10546000216800BF0868000608D4FDF707FD801B0F
:10547000404541D82168C868F4E700BF17B117F864
:10548000010B04E035F8020B00276FF35F20486042
:10549000E08C0138E084E08C0028E3D105E000BF17
:1054A0000027E08C00289DD12168086840061FD4A1
:1054B000B8F1000F1ED018F101000FD108684006A6
:1054C00016D40868400613D40868400610D408684B
:1054D00040064FF00000F1D50FE000BFFDF7CEFC15
:1054E000801B404508D82068C16800684006F5D593
:1054F000002002E0FDF7C2FC0320202184F84110C7
:10550000BDE8F08170470000FEE700002DE9F0479C
:1055100082B0044600680E460168DDF828A041F418
:10552000806101600168DDF82C9041F480711D46B6
:105530001746016020464FF0011100225346CDF876
:10554000009000F0CFF858B120680068C00544BF53
:105550004FF400702064032002B0BDE8F08700BF64
:1055600040F202082068C0F2010806F0FE0606615B
:105570002046414652464B4600F09EF920B101209C
:1055800002B0BDE8F08700BF0020019020684A46C5
:10559000416901918069514601900198204600F0CF
:1055A00043FA98B92068012D08D0390A01612046D4
:1055B00051464A4600F038FA40B92068F9B2016114
:1055C000204651464A4600F02FFA58B1206C042874
:1055D000D5D12068016841F400710160012002B05A
:1055E000BDE8F087206800220168534641F48071CD
:1055F000016020464FF00111CDF8009000F072F8E4
:105600000028A1D1206846F00101016120464146F1
:1056100052464B4600F050F9002818BF012002B056
:10562000BDE8F08770B50368044653F8140F4007CF
:1056300011D40E46481C29D086BB00BF186840050F
:1056400027D4FDF71BFC236853F8140F400739D506
:1056500018684007F2D5002070BD00BF18684007E9
:10566000F9D41868400514D418684007F3D41868B2
:1056700040050ED418684007EDD41868400508D4DA
:10568000186840074FF0000048BF70BD186840051B
:10569000E4D56FF480601860042014E0154603E040
:1056A00053F8140F4007D6D418684005F1D4FDF71D
:1056B000E5FB401B2368B042F2D958694007EFD49C
:1056C000202000E0202000212022216384F83D20BA
:1056D00084F83E10226C10432064012084F83C10B2
:1056E00070BD00002DE9F041054600681E461446D5
:1056F00001F47F0201338FB242D0DDF81880B2F599
:10570000803F40F0878040693840C01BB0FA80F08D
:105710004009A04240F0C8804EB924E040693840BA
:10572000C01BB0FA80F04009A04240F0BD80FDF7F8
:10573000A5FBA0EB08012868B142EFD941693940C7
:10574000C91BB1FA81F14909A142E7D19BE000BF31
:1057500040693840C01BB0FA80F04009A0424FF0C9
:10576000000040F0A680FDF789FB286841693940B8
:10577000C91BB1FA81F14909A142E9D183E000BF17
:10578000B2F5803F24D100BF41693940C91BB1FA4D
:1057900081F14909A14240F0878041693940C91B24
:1057A000B1FA81F14909A14240F07E804169394056
:1057B000C91BB1FA81F14909A14275D1416939404A
:1057C000C91BB1FA81F14909A142DDD06CE000BFEB
:1057D00081693940C91BB1FA81F14909A14263D1FC
:1057E00081693940C91BB1FA81F14909A1425BD1F4
:1057F00081693940C91BB1FA81F14909A14253D1EC
:1058000081693940C91BB1FA81F14909A142DFD050
:105810004AE000BF80693840C01BB0FA80F0400900
:10582000A04241D146B923E080693840C01BB0FA9C
:1058300080F04009A0423BD1FDF720FBA0EB08011E
:105840002868B142F0D981693940C91BB1FA81F1A8
:105850004909A142E8D116E080693840C01BB0FA7E
:1058600080F04009A0424FF0000018BFBDE8F08171
:10587000FDF704FB286881693940C91BB1FA81F141
:105880004909A142E8D100202021286385F83D1074
:1058900085F83E00296C41F02001296485F83C0020
:1058A0000120BDE8F08100BF0020BDE8F08100BF0D
:1058B0000020BDE8F0810000F0B581B0044600682A
:1058C0001D4643698FB203EA0701B94202D10020A5
:1058D00001B0F0BD41691646013201F4806125D066
:1058E000002940D1CEB100BFFDF7C8FA411B2068A6
:1058F000B14203D941693940B9424BD1416939407C
:10590000B942E4D041694905EED52CE041693940FE
:10591000B942DCD04169490525D4FDF7AFFA2068CA
:1059200041693940B942F1D0202024E0D9B9416918
:105930003940B942CBD04169490514D44169394055
:10594000B942C4D0416949050DD441693940B942D1
:10595000BDD04169490506D441693940B942B6D044
:1059600041694905E3D5016841F4007101606FF4B4
:1059700080614161042000212022216384F83D20C0
:1059800084F83E10226C1043206484F83C100120FF
:1059900001B0F0BD2020EEE770B504460068154662
:1059A00050F8143F5A063DD40E4629B926E000BFF0
:1059B00050F8141F490635D40168C90621D4FDF7F3
:1059C0005DFA411B2068B142F2D941694906EFD422
:1059D00000202021206384F83D1084F83E00206CD4
:1059E00040F0200018E000BFFDF748FA206850F8AA
:1059F000141F4906ECD50168490613D40168C9068D
:105A0000F2D56FF01001016000202021206384F89E
:105A10003D1084F83E00206C2064002084F83C0097
:105A2000012070BD002070BD70B50368044653F8B6
:105A3000140F000611D40E46481C29D086BB00BFA7
:105A40001868400527D4FDF719FA236853F8140F96
:105A5000000639D518680006F2D5002070BD00BFD9
:105A600018680006F9D41868400514D418680006B0
:105A7000F3D4186840050ED418680006EDD41868F1
:105A8000400508D4186800064FF0000048BF70BDFC
:105A900018684005E4D56FF480601860042014E0B5
:105AA000154603E053F8140F0006D6D418684005D5
:105AB000F1D4FDF7E3F9401B2368B042F2D95869ED
:105AC0000006EFD4202000E02020002120222163C6
:105AD00084F83D2084F83E10226C1043206401209D
